:100000000C9462000C948A000C948A000C948A0070
:100010000C948A000C948A000C948A000C948A0038
:100020000C948A000C948A000C948A000C9433047B
:100030000C948A000C948A000C948A000C948A0018
:100040000C94E9030C948A000C948A000C948A00A6
:100050000C948A000C948A000C948A000C948A00F8
:100060000C948A000C948A000000000024002700F1
:100070002A0000000000250028002B0000000000DE
:1000800023002600290004040404040404040202DA
:100090000202020203030303030301020408102007
:1000A0004080010204081020010204081020000012
:1000B0000008000201000003040700000000000027
:1000C00000008D0811241FBECFEFD8E0DEBFCDBFEA
:1000D00011E0A0E0B1E0ECE5F3E102C005900D9283
:1000E000AC3BB107D9F722E0ACEBB1E001C01D9207
:1000F000AE37B207E1F710E0C2E6D0E004C02197C6
:10010000FE010E949D09C136D107C9F70E94EF0484
:100110000C94AC090C94000096E0899FD001112446
:10012000A950BE4F90967C936E935F9791E0919605
:100130009C939197E0916402F09165029091630223
:10014000992339F0309751F0811108C08091130242
:100150000994309719F05C968C91FACF0895CF925C
:10016000DF92EF92FF920F931F9396E0899FF00129
:100170001124E950FE4F11A2278D30A12130310505
:1001800051F178F02230310509F451C023303105A6
:1001900009F452C01F910F91FF90EF90DF90CF9024
:1001A00008956623B9F361E070E00E948C002FB7D8
:1001B000F8948091F3019091F401A091F501B09130
:1001C000F6012FBF80934F0290935002A0935102EB
:1001D000B0935202DFCF9FB7F894C090F301D09054
:1001E000F401E090F501F090F6019FBF00914F02FD
:1001F000109150022091510230915202C01AD10A3E
:10020000E20AF30A009161021091620230E020E0FC
:100210000C151D052E053F0550F462E070E01F919E
:100220000F91FF90EF90DF90CF900C948C006111B4
:10023000B1CF63E070E0F3CF70E060E0F0CF8330E7
:1002400081F028F4813099F08230A9F00895873048
:10025000A9F08830C9F08430B1F4809180008F7D9E
:1002600003C0809180008F7780938000089584B5CB
:100270008F7784BD089584B58F7DFBCF8091B000CA
:100280008F778093B00008958091B0008F7DF9CF73
:10029000CF93DF93282F30E0F901E255FF4F84918F
:1002A000F901E656FF4FD491F901EA57FF4FC49187
:1002B000CC23A1F081110E941F01EC2FF0E0EE0F82
:1002C000FF1FE458FF4FA591B491EC91ED2381E01D
:1002D00090E009F480E0DF91CF91089580E090E014
:1002E000FACF1F93CF93DF93282F30E0F901E25527
:1002F000FF4F8491F901E656FF4FD491F901EA5777
:10030000FF4FC491CC23A9F0162F81110E941F0129
:10031000EC2FF0E0EE0FFF1FEE58FF4FA591B491C8
:100320008FB7F894EC91111108C0D095DE23DC93BF
:100330008FBFDF91CF911F910895DE2BF8CFCF9320
:10034000DF9390E0FC01E656FF4F24918A579F4FC0
:10035000FC0184918823C9F090E0880F991FFC016B
:10036000E859FF4FA591B491FC01EE58FF4FC5919C
:10037000D49161110DC09FB7F8948C912095822380
:100380008C938881282328839FBFDF91CF91089584
:10039000623051F49FB7F8943C91822F809583236B
:1003A0008C93E8812E2BEFCF8FB7F894EC912E2B06
:1003B0002C938FBFEACF8E50806480937C00809115
:1003C0007A00806480937A0080917A0086FDFCCF69
:1003D000809178009091790008953FB7F8948091CA
:1003E000EF019091F001A091F101B091F20126B5D9
:1003F000A89B05C02F3F19F00196A11DB11D3FBF5D
:10040000BA2FA92F982F8827BC01CD01620F711D2B
:10041000811D911D42E0660F771F881F991F4A9525
:10042000D1F708958F929F92AF92BF92CF92DF92B1
:10043000EF92FF924B015C010E94ED016B017C0188
:100440000E94ED016C197D098E099F09683E734079
:1004500081059105A8F321E0821A9108A108B1084D
:1004600088EEC80E83E0D81EE11CF11C81149104B3
:10047000A104B10429F7FF90EF90DF90CF90BF90D7
:10048000AF909F908F900895862F642F0C949F01BA
:10049000862F642F0C947101862F0C944801AF9223
:1004A000BF92CF92DF92EF92FF920F931F93CF9361
:1004B000DF936C017B018B01040F151FEB015E01C3
:1004C000AE18BF08C017D10759F06991D601ED9158
:1004D000FC910190F081E02DC6010995892B79F7F7
:1004E000C501DF91CF911F910F91FF90EF90DF90A9
:1004F000CF90BF90AF900895089590E080E0089568
:10050000FC0101900020E9F73197AF01481B590B1E
:10051000BC0186E692E00C944F020C948002CF93CB
:10052000DF93EC0160E08E810E94710161E08E81B9
:100530000E94710160E08E810E9471018BE891E060
:100540000197F1F7DF91CF910895CF92DF92EF926B
:10055000FF920F931F93CF93DF936C017C0187E091
:10056000E80EF11CD0E0C0E0062F10E0B8010C2E20
:1005700002C0759567950A94E2F76170F701819161
:100580007F010E9471012196C430D10579F7C6011F
:10059000DF91CF911F910F91FF90EF90DF90CF905F
:1005A0000C948F02CF92DF92EF92FF920F931F93E2
:1005B000CF93DF93EC01F62E642F8C810E947101A2
:1005C0008D818F3F19F060E00E9471010F2D10E0C6
:1005D0008F8584FF25C06E0187E0C80ED11CF12CE9
:1005E000E12CB8010E2C02C0759567950A94E2F7CC
:1005F0006170F60181916F010E947101FFEFEF1AA6
:10060000FF0A88E0E816F10461F7CE01DF91CF918F
:100610001F910F91FF90EF90DF90CF900C948F027D
:10062000B80184E0759567958A95E1F7CE010E943F
:10063000A5026F2DCE01DF91CF911F910F91FF90F9
:10064000EF90DF90CF900C94A50240E0682F86E6F3
:1006500092E00C94D20281E00E9425038BE39FE19B
:100660000197F1F70895CF93DF93823029F49091A9
:1006700075029860909375028093790210927A02C5
:1006800080E480937B0280E180937C0280E580930C
:100690007D0261E080916A020E949F0180916B025D
:1006A0008F3F19F061E00E949F0161E080916C0230
:1006B0000E949F01C6E6D2E09E01265632408091FC
:1006C000750284FD0BC084E090E02196281739075D
:1006D00044F461E08E810E949F01EECF88E090E0BB
:1006E000F4CF8BE39DE00197F1F760E080916A021F
:1006F0000E94710160E080916C020E947101809102
:100700006B028F3F19F060E00E94710180917502C9
:1007100084FD34C063E086E692E00E94A502CBE44B
:10072000D6E4CE010197F1F763E086E692E00E94FD
:10073000A5022197F1F763E086E692E00E94A50208
:1007400083E592E00197F1F762E086E692E00E948D
:10075000A5028091750280620E94250384E0809347
:1007600076028CE00E9425030E942B0382E0809396
:10077000770286E0DF91CF910C94250380620E947E
:1007800025038BE496E40197F1F78091750280626E
:100790000E94250383E592E00197F1F780917502AD
:1007A00080620E942503D5CF90917902691710F0DD
:1007B0006FEF690FE62FF0E0EA59FD4F9489890F3A
:1007C00080680C94250341E00E94D20281E090E011
:1007D00008951F920F920FB60F9211242F933F93FB
:1007E0008F939F93AF93BF938091F3019091F40106
:1007F000A091F501B091F6013091EE0123E0230FB5
:100800002D3758F50196A11DB11D2093EE0180935F
:10081000F3019093F401A093F501B093F601809158
:10082000EF019091F001A091F101B091F2010196D8
:10083000A11DB11D8093EF019093F001A093F101F0
:10084000B093F201BF91AF919F918F913F912F9102
:100850000F900FBE0F901F90189526E8230F029659
:10086000A11DB11DD2CF1F920F920FB60F9211246E
:100870002F933F934F935F936F937F938F939F93A8
:10088000AF93BF93CF93DF93EF93FF938091BD011D
:10089000C091BC01D0E087FF24C010928500109267
:1008A00084008091BD018F5F8093BD018091BD0167
:1008B000082E000C990B8C179D0724F48091BD0124
:1008C0008C30C4F18091840090918500049680342E
:1008D0009C4908F47AC08091840090918500049628
:1008E00076C08091BD01082E000C990B8C179D07D6
:1008F000C4F6E091BD018E2FEE0F990BFC01EE0FB7
:10090000FF1FE80FF91FEB53FE4F808186FFC9CF11
:10091000E091BD018E2FEE0F990BFC01EE0FFF1F32
:10092000E80FF91FEB53FE4F808160E08F730E9448
:100930007101B7CF2091840030918500E091BD0115
:100940008E2FEE0F990BFC01EE0FFF1FE80FF91F22
:10095000EB53FE4F81819281820F931F9093890008
:1009600080938800E091BD018E2FEE0F990BFC0162
:10097000EE0FFF1FE80FF91FEB53FE4F808186FF3C
:1009800011C0E091BD018E2FEE0F990BFC01EE0F0F
:10099000FF1FE80FF91FEB53FE4F808161E08F735B
:1009A0000E947101FF91EF91DF91CF91BF91AF91C3
:1009B0009F918F917F916F915F914F913F912F9177
:1009C0000F900FBE0F901F90189580E49CE99093B4
:1009D0008900809388008FEF8093BD01E3CFCF9390
:1009E000DF93CDB7DEB7A1970FB6F894DEBF0FBE89
:1009F000CDBF789484B5826084BD84B5816084BDA8
:100A000085B5826085BD85B5816085BD80916E00AC
:100A1000816080936E0010928100809181008260DD
:100A2000809381008091810081608093810080911A
:100A300080008160809380008091B1008460809309
:100A4000B1008091B00081608093B00080917A0005
:100A5000846080937A0080917A00826080937A002B
:100A600080917A00816080937A0080917A0080681A
:100A700080937A001092C10082E00E94330360E00C
:100A800085E00E94D40389E291E00E948D0268EE25
:100A900073E080E090E00E9412020E942B0360E06D
:100AA00080E00E94D40381E391E00E948D0261E026
:100AB00080E00E94D4038DE391E00E948D0268EEF5
:100AC00073E080E090E00E9412020E942B0362E03B
:100AD00080E10E949F0162E081E10E949F0161E04C
:100AE0008AE00E949F0161E089E00E949F0160E02E
:100AF0008FE00E949F0160E08EE00E949F0161E014
:100B00008BE00E949F018091E9018C3008F051C078
:100B100061E08BE00E949F018091E901282F30E085
:100B2000F901EE0FFF1FE20FF31FEB53FE4F908111
:100B3000907C9B6090831092EA011092EB012CE074
:100B4000622F0E948A09829FB001112430E020E0C8
:100B5000AB01420F531FFA01EE0FFF1FE40FF51F09
:100B6000EB53FE4F908196FD16C02F5F3F4F2C3008
:100B7000310571F781110FC01092800082E08093DF
:100B800081001092850010928400B19A80916F00CC
:100B9000826080936F00E091E9018E2F90E0FC016C
:100BA000EE0FFF1FE80FF91FEB53FE4F80818064AB
:100BB0008083B8E82B2E312C81E0809363028FB7BD
:100BC000F8944091F3015091F4016091F501709116
:100BD000F6018FBF8091530290915402A09155026B
:100BE000B0915602481B590B6A0B7B0B80915F0238
:100BF00090916002B0E0A0E084179507A607B707C0
:100C000008F0F3C110E080915D02181760F4E091E4
:100C10005902F0915A02E10FF11D62E080810E94B9
:100C20009F011F5FF0CFB12C80915E02B81608F0D3
:100C300063C0EB2CF12CE0915B02F0915C02EE0DB5
:100C4000FF1D61E080810E949F01E0915B02F091B5
:100C50005C02EE0DFF1D60E080810E94710181E069
:100C600090E0A0E0B0E00B2C04C0880F991FAA1FF1
:100C7000BB1F0A94D2F74C016C01C094D094712C24
:100C800080915D02781608F5072D10E0E091590279
:100C9000F0915A02E00FF11F80810E9448010C5F21
:100CA0001F4F000F111FF801E950FE4F892B41F42F
:100CB0008081918188299929918380837394E0CFE1
:100CC000808191818C219D21F7CFE0915B02F09191
:100CD0005C02EE0DFF1D61E080810E947101809138
:100CE0005B0290915C02E80EF91E60E0F7018081E2
:100CF0000E949F01B39498CFF7EFEF2EF1E0FF2E03
:100D000083E392E087012FEF3FEFF801478D50A179
:100D1000452B21F4148E368F258F11A20A5F1F4FA9
:100D20008017910791F7D12CE6E0BE2E80915D02ED
:100D3000D81608F052C0C12C8D2C912C880C991C0F
:100D4000C40181509E4F4C0120915E02C21608F0F2
:100D500042C0F401608171810C2C02C076956795C8
:100D60000A94E2F7D29E900111242C0D311DE7EF79
:100D7000F1E080E0458D568D2417350709F4CBC18D
:100D80008F5F36968A30B1F760FF23C0E7EFF1E05E
:100D900090E080E0448D411117C0E0915702F0913E
:100DA0005802E20FF31F4081B89EF001B99EF00D8A
:100DB0001124E950FE4F448F368F258F10A2178ED5
:100DC00061E00E94AF0005C0019636968A30910519
:100DD00009F7C394B9CFD394A9CF80E0F70191A1CB
:100DE0009111892FF6E0EF0EF11CE016F106B1F734
:100DF0009FB7F8944091F3015091F4016091F5018F
:100E00007091F6019FBF4093530250935402609338
:100E1000550270935602882309F4E7C080911802A6
:100E2000882309F4E2C000911602109117020130E4
:100E3000110509F0DAC0F0901302F110D9C08091C9
:100E4000EC019091ED01019709F035C18FE00E940E
:100E5000DB012FEF30E0DC010E9496092FEF33E039
:100E600040E050E00E941F0989012F3F310519F031
:100E700014F00FEF10E017FD00E080E10E94480140
:100E80007C0181E10E944801EF2809F01CC1602F1C
:100E90008AE00E94710160E089E00E94710160E0D7
:100EA00080E00E94D4038CE891E00E948D028DE7DF
:100EB00091E00E948D028EE00E94DB0124EB30E085
:100EC000DC010E9496092FEF33E040E050E00E94E1
:100ED0001F09253B310514F024EB30E037FF02C039
:100EE00030E020E0B090E9016901330FEE08FF081F
:100EF000FBE0FB1508F44FC08091EB0148E5842E20
:100F000042E0942E881A910887FD9394880C991CCE
:100F1000880C991C8091EA018101081B110987FD49
:100F20001395000F111F000F111F2801012E000C37
:100F3000660877089401092C000C440B550B241902
:100F4000350946095709C701B6010E947A0924EB01
:100F500030E040E050E00E941F09420E531E641E24
:100F6000751E401651062CF08401481459040CF4E7
:100F7000820102501109000F111F2FB7F8948B2D19
:100F800090E0FC01EE0FFF1FE80FF91FEB53FE4F3F
:100F9000128301832FBF61E080E00E94D4038CE8BC
:100FA00091E00E948D028DEA91E00E948D02A701DE
:100FB000960119A28E010F5D1F4FCA01B9012AE0E7
:100FC00030E040E050E00E944909605DF801629322
:100FD0008F01211531054105510579F7309709F445
:100FE0002ECFCF010E9480022ACF1092630227CF1A
:100FF0008CE491E00E948D028091C3019091C40124
:10100000FC01E254FE4FF08201969093C40180935C
:10101000C30123E2F21213CF82549E4FFC011082CF
:101020001092C4011092C3016EE471E08EEB91E066
:101030000E94A309892B91F40E942B0384E591E07F
:101040000E948D0264EF71E080E090E00E94120245
:101050000E942B031093ED010093EC016EE471E00C
:101060008EEB91E00E94A309892B09F4E8CE0E943F
:101070002B0360E080E00E94D40384E691E00E94AC
:101080008D0264EF71E080E090E00E94120261E066
:1010900080E00E94D40382E791E00E948D0264EF19
:1010A00071E080E090E00E9412020E942B031092F7
:1010B000ED011092EC0180E090E0892B09F47CCDE9
:1010C0000E94000079CD892B99F4602F89E00E945D
:1010D000710160E08AE00E94710160E080E00E949E
:1010E000D4038CE891E00E948D028DE891E0E1CE7E
:1010F00060E089E00E94710160E08AE00E94710175
:1011000060E080E00E94D4038CE891E00E948D02B0
:101110008DE991E0CECE617054CE8091BC018C30CF
:1011200008F089C091E0980F9093BC018093E90189
:1011300090E0FC01EE0FFF1FE80FF91FEB53FE4F8D
:1011400088EB9BE0928381831092F9011092FD015C
:101150001092FC011092FE0183E291E09093F8015D
:101160008093F701E3E1F2E010821482138215828A
:10117000369682E0EF34F807B9F783E091E0909378
:101180005A028093590280E091E090935C02809330
:101190005B0284E080935D0283E080935E0287E0DF
:1011A00091E090935802809357028AE090E09093E8
:1011B000600280935F0284EF91E0909362028093DB
:1011C0006102109265021092640210925302109212
:1011D000540210925502109256021092630210921D
:1011E00069021092680287E191E090936702809310
:1011F000660283E180936A028FEF80936B0282E143
:1012000080936C0287E080936D0288E080936E0289
:101210008CE080936F028DE08093700210927102D7
:101220001092720210927302109274021092750260
:1012300081E00C9433038FEF8093E90185CF052E75
:1012400097FB1EF400940E94360957FD07D00E94B8
:10125000490907FC03D04EF40C943609509540958B
:10126000309521953F4F4F4F5F4F08959095809552
:10127000709561957F4F8F4F9F4F08950E946B0926
:10128000A59F900DB49F900DA49F800D911D1124DA
:101290000895A1E21A2EAA1BBB1BFD010DC0AA1FB7
:1012A000BB1FEE1FFF1FA217B307E407F50720F0CF
:1012B000A21BB30BE40BF50B661F771F881F991F4A
:1012C0001A9469F760957095809590959B01AC0193
:1012D000BD01CF010895A29FB001B39FC001A39F9C
:1012E000700D811D1124911DB29F700D811D11245F
:1012F000911D0895DB018F939F930E943E09BF913A
:10130000AF91A29F800D911DA39F900DB29F900D54
:1013100011240895991B79E004C0991F961708F0CD
:10132000961B881F7A95C9F7809508950E946B09CE
:10133000B7FF0895821B930B0895EE0FFF1F0590D2
:10134000F491E02D0994FB01DC018D91019080194D
:0C1350000110D9F3990B0895F894FFCF19
:10135C00040506030201003132333435363738398F
:10136C002A302300000000E3034F027D027C0200C0
:10137C00000000440248024C0257656C636F6D65B7
:10138C0000456E74657220506173733A00282329EE
:10139C0020666F7220456E74657220002A0031320F
:1013AC003334230041636365737320416363657059
:1013BC00746564004163636573732044656E69658D
:1013CC00640054727920416761696E2000444320A7
:1013DC004D6F746F722020284357292000444320FE
:1013EC004D6F746F722028434357292000444320CB
:1013FC004D6F746F72206973206F6666005365724F
:0C140C00766F2020416E676C653D00008B
:00000001FF
