:100000000C9462000C948A000C948A000C948A0070
:100010000C948A000C948A000C948A000C948A0038
:100020000C948A000C948A000C948A000C947F042F
:100030000C948A000C948A000C948A000C948A0018
:100040000C9435040C948A000C948A000C948A0059
:100050000C948A000C948A000C948A000C948A00F8
:100060000C948A000C948A000000000024002700F1
:100070002A0000000000250028002B0000000000DE
:1000800023002600290004040404040404040202DA
:100090000202020203030303030301020408102007
:1000A0004080010204081020010204081020000012
:1000B0000008000201000003040700000000000027
:1000C0000000330911241FBECFEFD8E0DEBFCDBF43
:1000D00011E0A0E0B1E0E8EAF4E102C005900D9281
:1000E000A43EB107D9F722E0A4EEB1E001C01D9211
:1000F000A63AB207E1F710E0C2E6D0E004C02197CB
:10010000FE010E94430AC136D107C9F70E943B0590
:100110000C94520A0C94000096E0899FD00111249F
:10012000A15EBD4F90967C936E935F9791E0919600
:100130009C939197E0918C02F0918D0290918B02AB
:10014000992339F0309751F0811108C080913B021A
:100150000994309719F05C968C91FACF0895CF925C
:10016000DF92EF92FF920F931F9396E0899FF00129
:100170001124E15EFD4F11A2278D30A12130310500
:1001800051F178F02230310509F451C023303105A6
:1001900009F452C01F910F91FF90EF90DF90CF9024
:1001A00008956623B9F361E070E00E948C002FB7D8
:1001B000F89480911B0290911C02A0911D02B091B5
:1001C0001E022FBF8093770290937802A09379024A
:1001D000B0937A02DFCF9FB7F894C0901B02D09003
:1001E0001C02E0901D02F0901E029FBF009177025A
:1001F000109178022091790230917A02C01AD10AC6
:10020000E20AF30A0091890210918A0230E020E0AC
:100210000C151D052E053F0550F462E070E01F919E
:100220000F91FF90EF90DF90CF900C948C006111B4
:10023000B1CF63E070E0F3CF70E060E0F0CF8330E7
:1002400081F028F4813099F08230A9F00895873048
:10025000A9F08830C9F08430B1F4809180008F7D9E
:1002600003C0809180008F7780938000089584B5CB
:100270008F7784BD089584B58F7DFBCF8091B000CA
:100280008F778093B00008958091B0008F7DF9CF73
:10029000CF93DF93282F30E0F901E255FF4F84918F
:1002A000F901E656FF4FD491F901EA57FF4FC49187
:1002B000CC23A1F081110E941F01EC2FF0E0EE0F82
:1002C000FF1FE458FF4FA591B491EC91ED2381E01D
:1002D00090E009F480E0DF91CF91089580E090E014
:1002E000FACF1F93CF93DF93282F30E0F901E25527
:1002F000FF4F8491F901E656FF4FD491F901EA5777
:10030000FF4FC491CC23A9F0162F81110E941F0129
:10031000EC2FF0E0EE0FFF1FEE58FF4FA591B491C8
:100320008FB7F894EC91111108C0D095DE23DC93BF
:100330008FBFDF91CF911F910895DE2BF8CFCF9320
:10034000DF9390E0FC01E656FF4F24918A579F4FC0
:10035000FC0184918823C9F090E0880F991FFC016B
:10036000E859FF4FA591B491FC01EE58FF4FC5919C
:10037000D49161110DC09FB7F8948C912095822380
:100380008C938881282328839FBFDF91CF91089584
:10039000623051F49FB7F8943C91822F809583236B
:1003A0008C93E8812E2BEFCF8FB7F894EC912E2B06
:1003B0002C938FBFEACF8E50806480937C00809115
:1003C0007A00806480937A0080917A0086FDFCCF69
:1003D000809178009091790008953FB7F8948091CA
:1003E000170290911802A0911902B0911A0226B535
:1003F000A89B05C02F3F19F00196A11DB11D3FBF5D
:10040000BA2FA92F982F8827BC01CD01620F711D2B
:10041000811D911D42E0660F771F881F991F4A9525
:10042000D1F708958F929F92AF92BF92CF92DF92B1
:10043000EF92FF924B015C010E94ED016B017C0188
:100440000E94ED016C197D098E099F09683E734079
:1004500081059105A8F321E0821A9108A108B1084D
:1004600088EEC80E83E0D81EE11CF11C81149104B3
:10047000A104B10429F7FF90EF90DF90CF90BF90D7
:10048000AF909F908F900895862F642F0C949F01BA
:10049000862F642F0C947101862F0C944801AF9223
:1004A000BF92CF92DF92EF92FF920F931F93CF9361
:1004B000DF936C017B018B01040F151FEB015E01C3
:1004C000AE18BF08C017D10759F06991D601ED9158
:1004D000FC910190F081E02DC6010995892B79F7F7
:1004E000C501DF91CF911F910F91FF90EF90DF90A9
:1004F000CF90BF90AF900895089590E080E0089568
:100500008F929F92AF92BF920F931F93CF93DF93DF
:10051000CDB7DEB7A1970FB6F894DEBF0FBECDBF43
:1005200019A2423008F44AE08E010F5D1F4F842E5D
:10053000912CB12CA12CA50194010E94EF09E62F6A
:10054000B901CA01EA3044F5E05DD801EE938D01AE
:10055000232B242B252B79F790E080E0109769F06E
:10056000FD0101900020E9F73197AF014A1B5B0BB9
:10057000BD018EE892E00E944F02A1960FB6F8945A
:10058000DEBF0FBECDBFDF91CF911F910F91BF9006
:10059000AF909F908F900895E95CD7CFFC010190B8
:1005A0000020E9F73197AF01481B590BBC018EE8D9
:1005B00092E00C944F02CF93DF93EC0160E08E81C8
:1005C0000E94710161E08E810E94710160E08E8164
:1005D0000E9471018BE891E00197F1F7DF91CF91D3
:1005E0000895CF92DF92EF92FF920F931F93CF93D4
:1005F000DF936C017C0187E0E80EF11CD0E0C0E0E5
:10060000062F10E0B8010C2E02C0759567950A946C
:10061000E2F76170F70181917F010E9471012196DB
:10062000C430D10579F7C601DF91CF911F910F91A9
:10063000FF90EF90DF90CF900C94DB02CF92DF928F
:10064000EF92FF920F931F93CF93DF93EC01F62E5F
:10065000642F8C810E9471018D818F3F19F060E0C1
:100660000E9471010F2D10E08F8584FF25C06E015F
:1006700087E0C80ED11CF12CE12CB8010E2C02C071
:10068000759567950A94E2F76170F60181916F01A3
:100690000E947101FFEFEF1AFF0A88E0E816F104EB
:1006A00061F7CE01DF91CF911F910F91FF90EF90F5
:1006B000DF90CF900C94DB02B80184E075956795CC
:1006C0008A95E1F7CE010E94F1026F2DCE01DF91F4
:1006D000CF911F910F91FF90EF90DF90CF900C94EE
:1006E000F10240E0682F8EE892E00C941E0381E056
:1006F0000E9471038BE39FE10197F1F70895CF9377
:10070000DF93823029F490919D02986090939D022E
:100710008093A1021092A20280E48093A30280E160
:100720008093A40280E58093A50261E0809192020B
:100730000E949F01809193028F3F19F061E00E9417
:100740009F0161E0809194020E949F01CEE8D2E077
:100750009E012E58324080919D0284FD0BC084E0A2
:1007600090E021962817390744F461E08E810E94B9
:100770009F01EECF88E090E0F4CF8BE39DE00197FE
:10078000F1F760E0809192020E94710160E0809137
:1007900094020E947101809193028F3F19F060E0F2
:1007A0000E94710180919D0284FD34C063E08EE857
:1007B00092E00E94F102CBE4D6E4CE010197F1F77A
:1007C00063E08EE892E00E94F1022197F1F763E086
:1007D0008EE892E00E94F10283E592E00197F1F742
:1007E00062E08EE892E00E94F10280919D028062B8
:1007F0000E94710384E080939E028CE00E9471034A
:100800000E94770382E080939F0286E0DF91CF9180
:100810000C94710380620E9471038BE496E401974B
:10082000F1F780919D0280620E94710383E592E05E
:100830000197F1F780919D0280620E947103D5CFEC
:100840009091A102691710F06FEF690FE62FF0E0A9
:10085000E257FD4F9489890F80680C94710341E041
:100860000E941E0381E090E008951F920F920FB640
:100870000F9211242F933F938F939F93AF93BF9326
:1008800080911B0290911C02A0911D02B0911E024A
:100890003091160223E0230F2D3758F50196A11D44
:1008A000B11D2093160280931B0290931C02A0930B
:1008B0001D02B0931E028091170290911802A09120
:1008C0001902B0911A020196A11DB11D8093170261
:1008D00090931802A0931902B0931A02BF91AF919E
:1008E0009F918F913F912F910F900FBE0F901F906E
:1008F000189526E8230F0296A11DB11DD2CF1F9295
:100900000F920FB60F9211242F933F934F935F9343
:100910006F937F938F939F93AF93BF93CF93DF9307
:10092000EF93FF938091E501C091E401D0E087FF50
:1009300024C010928500109284008091E5018F5FA1
:100940008093E5018091E501082E000C990B8C172E
:100950009D0724F48091E5018C30C4F180918400DE
:1009600090918500049680349C4908F47AC0809167
:10097000840090918500049676C08091E501082E50
:10098000000C990B8C179D07C4F6E091E5018E2FA2
:10099000EE0F990BFC01EE0FFF1FE80FF91FE3515B
:1009A000FE4F808186FFC9CFE091E5018E2FEE0FCB
:1009B000990BFC01EE0FFF1FE80FF91FE351FE4FEB
:1009C000808160E08F730E947101B7CF2091840015
:1009D00030918500E091E5018E2FEE0F990BFC011F
:1009E000EE0FFF1FE80FF91FE351FE4F8181928147
:1009F000820F931F9093890080938800E091E50116
:100A00008E2FEE0F990BFC01EE0FFF1FE80FF91F61
:100A1000E351FE4F808186FF11C0E091E5018E2FEA
:100A2000EE0F990BFC01EE0FFF1FE80FF91FE351CA
:100A3000FE4F808161E08F730E947101FF91EF9101
:100A4000DF91CF91BF91AF919F918F917F916F91E6
:100A50005F914F913F912F910F900FBE0F901F907C
:100A6000189580E49CE990938900809388008FEF2B
:100A70008093E501E3CFCF93DF9300D01F92CDB7F2
:100A8000DEB7789484B5826084BD84B5816084BD0E
:100A900085B5826085BD85B5816085BD80916E001C
:100AA000816080936E00109281008091810082604D
:100AB000809381008091810081608093810080918A
:100AC00080008160809380008091B1008460809379
:100AD000B1008091B00081608093B00080917A0075
:100AE000846080937A0080917A00826080937A009B
:100AF00080917A00816080937A0080917A0080688A
:100B000080937A001092C10082E00E947F0360E02F
:100B100085E00E9420048BE291E00E94CE0268EE04
:100B200073E080E090E00E9412020E94770360E090
:100B300080E00E94200483E391E00E94CE0261E005
:100B400080E00E9420048FE391E00E94CE0268EED4
:100B500073E080E090E00E9412020E94770362E05E
:100B600080E10E949F0162E081E10E949F0161E0BB
:100B70008AE00E949F0161E089E00E949F0160E09D
:100B80008FE00E949F0160E08EE00E949F0161E083
:100B90008BE00E949F01809111028C3008F051C0BF
:100BA00061E08BE00E949F0180911102282F30E0CC
:100BB000F901EE0FFF1FE20FF31FE351FE4F90818B
:100BC000907C9B60908310921202109213022CE092
:100BD000622F0E94300A829FB001112430E020E091
:100BE000AB01420F531FFA01EE0FFF1FE40FF51F79
:100BF000E351FE4F908196FD16C02F5F3F4F2C3082
:100C0000310571F781110FC01092800082E080934E
:100C100081001092850010928400B19A80916F003B
:100C2000826080936F00E09111028E2F90E0FC01B2
:100C3000EE0FFF1FE80FF91FE351FE4F8081806424
:100C4000808388248A94B3E09B2EA12CB12C18E5D4
:100C5000212E12E0312E81E080938B028FB7F89421
:100C600040911B0250911C0260911D0270911E0266
:100C70008FBF80917B0290917C02A0917D02B09108
:100C80007E02481B590B6A0B7B0B80918702909167
:100C90008802B0E0A0E084179507A607B70708F020
:100CA00003C21982809185022981281770F4E0918E
:100CB0008102F0918202E20FF11D62E080810E94C8
:100CC0009F0139813F5F3983EDCF712C809186027E
:100CD000781608F071C0072D10E0E0918302F091C2
:100CE0008402E00FF11F61E080810E949F01E0918A
:100CF0008302F0918402E00FF11F60E080810E9486
:100D0000710181E090E0A0E0B0E0072C04C0880F02
:100D1000991FAA1FBB1F0A94D2F76C017C01E094B3
:100D2000F094612C80918502681678F5462D50E08C
:100D30005B834A83E0918102F0918202CA01E80F4D
:100D4000F91F80810E944801EA81FB813496FB8370
:100D5000EA83892B61F4EE0FFF1FE15EFD4F808176
:100D600091818C299D29918380836394DBCF2A8193
:100D70003B81220F331F215E3D4F3B832A83F901C4
:100D8000808191818E219F21EECFE0918302F091AD
:100D90008402E00FF11F61E080810E947101809167
:100DA000830290918402080F191F60E0F80180818E
:100DB0000E949F0173948ACFEFE1EE2EE2E0FE2EB7
:100DC0008BE592E0FB82EA822FEF3FEFEA81FB8125
:100DD000478D50A1452B21F4148E368F258F11A2FB
:100DE0004A815B814A5F5F4F5B834A838417950723
:100DF00069F710E076E0D72E80918502181708F089
:100E000052C000E0612E712C660C771CC301895D15
:100E10009D4F3C0120918602021708F042C0F30169
:100E200060817181002E02C0769567950A94E2F781
:100E3000129F90011124200F311DEFE1F2E080E0BC
:100E4000458D568D2417350709F40BC28F5F3696F2
:100E50008A30B1F760FF23C0EFE1F2E090E080E07C
:100E6000448D411117C0E0917F02F0918002E20FA2
:100E7000F31F4081D89EF001D99EF00D1124E15E50
:100E8000FD4F448F368F258F10A2178E61E00E9490
:100E9000AF0005C0019636968A30910509F70F5FBD
:100EA000B9CF1F5FA9CF80E0F70191A19111892FE0
:100EB000F6E0EF0EF11C2A813B81E216F306A1F762
:100EC0009FB7F89440911B0250911C0260911D0243
:100ED00070911E029FBF40937B0250937C026093EF
:100EE0007D0270937E02882309F4DEC08091400267
:100EF000882309F4D9C040913E0250913F025B83A0
:100F00004A834130510509F0CFC010913B021111C5
:100F1000CEC08091140290911502019709F071C121
:100F20008FE00E94DB012FEF30E0DC010E943C0AE1
:100F3000A50194010E94C5093B832A832F3F3105F7
:100F400029F024F04FEF50E05B834A838A819B8134
:100F500097FF02C01B821A8280E10E9448018C0127
:100F600081E10E944801012B09F053C16A818AE0A6
:100F70000E94710160E089E00E94710160E080E000
:100F80000E94200485EB91E00E94CE0286EA91E067
:100F90000E94CE028EE00E94DB0124EB30E0DC01F7
:100FA0000E943C0AA50194010E94C509253B310518
:100FB00014F024EB30E037FF02C030E020E09091E5
:100FC000110299836901330FEE08FF089C3008F085
:100FD00059C0809113028101081B110987FD1395E7
:100FE000000F111F000F111F80911202E8E8F0E0BE
:100FF000E81BF10987FDF395EE0FFF1FEE0FFF1FB2
:10100000FB83EA832F01FF0F660877089801012E02
:10101000000C440B550B2419350946095709C70123
:10102000B6010E94200A24EB30E040E050E00E942C
:10103000C509420E531E641E751E2A813B8142164D
:1010400053063CF01B830A834016510614F45B825E
:101050004A824A815B8142505109440F551F5B838C
:101060004A832FB7F8945981852F90E0FC01EE0F49
:10107000FF1FE80FF91FE351FE4F8A819B81928386
:1010800081832FBF61E080E00E94200485EB91E026
:101090000E94CE0286ED91E00E94CE024AE0C70196
:1010A000B6010E94800235CF10928B0232CF8EE4BF
:1010B00091E00E94CE028091EB019091EC01FC0145
:1010C000EA51FE4F108301969093EC018093EB015F
:1010D000133209F01ECF8A519E4FFC0110821092EC
:1010E000EC011092EB0160E571E086EE91E00E9468
:1010F000490A892BA1F40E94770386E591E00E94BA
:10110000CE0264EF71E080E090E00E9412020E9443
:1011100077032A813B81309315022093140260E506
:1011200071E086EE91E00E94490A892B09F4F1CE24
:101130008091130190911401019790931401809371
:101140001301892BE9F40E94770386E691E00E945F
:10115000CE0261E080E00E94200487E791E00E94D7
:10116000CE0260E177E280E090E00E9412020E94ED
:10117000770384E090E09093140180931301C9CE2B
:101180000E94770360E080E00E94200488E891E0FC
:101190000E94CE0264EF71E080E090E00E941202B3
:1011A00061E080E00E94200486E991E00E94CE0286
:1011B000C0901301D09014010D2C000CEE08FF0814
:1011C0004AE0C701B601F7FE0EC041E06DE28EE8CD
:1011D00092E00E941E0366277727CB016C197D09D8
:1011E0008E099F094AE00E94800264EF71E080E06E
:1011F00090E00E9412020E94770310921502109252
:10120000140280E090E0892B09F425CD0E940000B3
:1012100022CD892B99F46A8189E00E94710160E0F6
:101220008AE00E94710160E080E00E94200485EB6A
:1012300091E00E94CE0286EB91E0AACE60E089E0C8
:101240000E94710160E08AE00E94710160E080E02C
:101250000E94200485EB91E00E94CE0286EC91E092
:1012600097CE617014CE8091E4018C3008F089C073
:1012700091E0980F9093E4018093110290E0FC01BB
:10128000EE0FFF1FE80FF91FE351FE4F88EB9BE0C5
:1012900092838183109221021092250210922402DF
:1012A0001092260285E291E09093200280931F0223
:1012B000EBE3F2E01082148213821582369682E00C
:1012C000E737F807B9F783E091E0909382028093C3
:1012D000810280E091E0909384028093830284E015
:1012E0008093850283E08093860287E091E090936B
:1012F000800280937F028AE090E09093880280933E
:10130000870284EF91E090938A0280938902109281
:101310008D0210928C0210927B0210927C0210922D
:101320007D0210927E0210928B0210929102109216
:10133000900289E191E090938F0280938E0283E185
:10134000809392028FEF8093930282E180939402C4
:1013500087E08093950288E0809396028CE08093EA
:1013600097028DE0809398021092990210929A024F
:1013700010929B0210929C0210929D0281E00C94AC
:101380007F038FEF8093110285CF052E97FB1EF40C
:1013900000940E94DC0957FD07D00E94EF0907FC6A
:1013A00003D04EF40C94DC0950954095309521956E
:1013B0003F4F4F4F5F4F0895909580957095619581
:1013C0007F4F8F4F9F4F08950E94110AA59F900D48
:1013D000B49F900DA49F800D911D11240895A1E24A
:1013E0001A2EAA1BBB1BFD010DC0AA1FBB1FEE1F9F
:1013F000FF1FA217B307E407F50720F0A21BB30BEA
:10140000E40BF50B661F771F881F991F1A9469F765
:1014100060957095809590959B01AC01BD01CF01C1
:101420000895A29FB001B39FC001A39F700D811DBD
:101430001124911DB29F700D811D1124911D0895DD
:10144000DB018F939F930E94E409BF91AF91A29F0C
:10145000800D911DA39F900DB29F900D11240895B2
:10146000991B79E004C0991F961708F0961B881FF6
:101470007A95C9F7809508950E94110AB7FF0895DB
:10148000821B930B0895EE0FFF1F0590F491E02D42
:101490000994FB01DC018D91019080190110D9F3B1
:0814A000990B0895F894FFCFA9
:1014A8000405060302010031323334353637383942
:1014B8002A30230400000000002F044F027D027C24
:1014C8000200000000440248024C0257656C636F3A
:1014D8006D6500456E74657220506173733A00281B
:1014E800232920666F7220456E74657220002A00D9
:1014F800313233342300416363657373204163637E
:1015080065707465640045786365656465644174F5
:1015180074656D7074730054727920616761696EC7
:1015280020696E2031307300416363657373204412
:10153800656E6965640072656D61696E65642074C5
:10154800726965733D004443204D6F746F722020AB
:101558002843572920004443204D6F746F72202878
:101568004343572920004443204D6F746F7220690C
:1015780073206F666600536572766F2020416E6730
:041588006C653D0051
:00000001FF
