:100000000C9462000C948A000C948A000C948A0070
:100010000C948A000C948A000C948A000C948A0038
:100020000C948A000C948A000C948A000C948A0028
:100030000C948A000C948A000C948A000C948A0018
:100040000C94E6010C948A000C948A000C948A00AB
:100050000C948A000C948A000C948A000C948A00F8
:100060000C948A000C948A000000000024002700F1
:100070002A0000000000250028002B0000000000DE
:1000800023002600290004040404040404040202DA
:100090000202020203030303030301020408102007
:1000A0004080010204081020010204081020000012
:1000B0000008000201000003040700000000000027
:1000C0000000E40311241FBECFEFD8E0DEBFCDBF98
:1000D00011E0A0E0B1E0E0E7F8E002C005900D9289
:1000E000A83BB107D9F722E0A8EBB1E001C01D920F
:1000F000A033B207E1F710E0C2E6D0E004C02197D8
:10010000FE010E943004C136D107C9F70E943002B7
:100110000C9436040C94000096E0899FD0011124C1
:10012000AF53BE4F90967C936E935F9791E09196FC
:100130009C939197E0912E02F0912F0290912D02C5
:10014000992339F0309751F0811108C08091DD0179
:100150000994309719F05C968C91FACF0895CF925C
:10016000DF92EF92FF920F931F9396E0899FF00129
:100170001124EF53FE4F11A2278D30A121303105FC
:1001800051F178F02230310509F451C023303105A6
:1001900009F452C01F910F91FF90EF90DF90CF9024
:1001A00008956623B9F361E070E00E948C002FB7D8
:1001B000F8948091BD019091BE01A091BF01B091D2
:1001C000C0012FBF8093190290931A02A0931B02C3
:1001D000B0931C02DFCF9FB7F894C090BD01D090C0
:1001E000BE01E090BF01F090C0019FBF00911902D5
:1001F00010911A0220911B0230911C02C01AD10AE0
:10020000E20AF30A00912B0210912C0230E020E068
:100210000C151D052E053F0550F462E070E01F919E
:100220000F91FF90EF90DF90CF900C948C006111B4
:10023000B1CF63E070E0F3CF70E060E0F0CF8330E7
:1002400081F028F4813099F08230A9F00895873048
:10025000A9F08830C9F08430B1F4809180008F7D9E
:1002600003C0809180008F7780938000089584B5CB
:100270008F7784BD089584B58F7DFBCF8091B000CA
:100280008F778093B00008958091B0008F7DF9CF73
:10029000CF93DF93282F30E0F901E255FF4F84918F
:1002A000F901E656FF4FD491F901EA57FF4FC49187
:1002B000CC23A1F081110E941F01EC2FF0E0EE0F82
:1002C000FF1FE458FF4FA591B491EC91ED2381E01D
:1002D00090E009F480E0DF91CF91089580E090E014
:1002E000FACF1F93CF93DF93282F30E0F901E25527
:1002F000FF4F8491F901E656FF4FD491F901EA5777
:10030000FF4FC491CC23A9F0162F81110E941F0129
:10031000EC2FF0E0EE0FFF1FEE58FF4FA591B491C8
:100320008FB7F894EC91111108C0D095DE23DC93BF
:100330008FBFDF91CF911F910895DE2BF8CFCF9320
:10034000DF9390E0FC01E656FF4F24918A579F4FC0
:10035000FC0184918823C9F090E0880F991FFC016B
:10036000E859FF4FA591B491FC01EE58FF4FC5919C
:10037000D49161110DC09FB7F8948C912095822380
:100380008C938881282328839FBFDF91CF91089584
:10039000623051F49FB7F8943C91822F809583236B
:1003A0008C93E8812E2BEFCF8FB7F894EC912E2B06
:1003B0002C938FBFEACF862F642F0C949F01862F3A
:1003C000642F0C947101862F0C9448011F920F9298
:1003D0000FB60F9211242F933F938F939F93AF9358
:1003E000BF938091BD019091BE01A091BF01B091DA
:1003F000C0013091BC0123E0230F2D3758F5019641
:10040000A11DB11D2093BC018093BD019093BE013D
:10041000A093BF01B093C0018091B8019091B90140
:10042000A091BA01B091BB010196A11DB11D8093AD
:10043000B8019093B901A093BA01B093BB01BF91E9
:10044000AF919F918F913F912F910F900FBE0F9081
:100450001F90189526E8230F0296A11DB11DD2CF3B
:10046000789484B5826084BD84B5816084BD85B58F
:10047000826085BD85B5816085BD80916E0081609B
:1004800080936E0010928100809181008260809341
:100490008100809181008160809381008091800043
:1004A0008160809380008091B10084608093B1006E
:1004B0008091B00081608093B00080917A00846068
:1004C00080937A0080917A00826080937A00809194
:1004D0007A00816080937A0080917A0080688093AE
:1004E0007A001092C100C7E061E08C2F0E949F014A
:1004F000CF5FCE30C9F7812C912C540183944424D2
:100500004A94542C50E0652E50E0752E21E0209343
:100510002D028FB7F8944091BD015091BE016091BA
:10052000BF017091C0018FBF80911D0290911E028A
:10053000A0911F02B0912002481B590B6A0B7B0B44
:100540008091290290912A02B0E0A0E084179507DB
:10055000A607B70708F014C1C0E080912702C817AA
:1005600060F4E0912302F0912402EC0FF11D62E0AF
:1005700080810E949F01CF5FF0CF312C80912802B3
:10058000381608F05FC0032D10E0E0912502F091CD
:100590002602E00FF11F61E080810E949F01E0913F
:1005A0002502F0912602E00FF11F60E080810E9499
:1005B0007101D501C401032C04C0880F991FAA1F23
:1005C000BB1F0A94D2F76C017C01E094F094212CBB
:1005D000809127022816F8F4C22DD0E0E091230282
:1005E000F0912402EC0FFD1F80810E9448012496A7
:1005F000CC0FDD1FCF53DE4F892B41F488819981C9
:100600008C299D29998388832394E2CF88819981BD
:100610008E219F21F7CFE0912502F0912602E00F75
:10062000F11F61E080810E9471018091250290910B
:100630002602080F191F60E0F80180810E949F01C7
:1006400033949CCF01EC11E0E8018F8D98A1892BA8
:1006500021F41C8E5E8E4D8E19A226968DEF91E0B0
:100660008C179D0791F7D12C80912702D81608F09E
:1006700053C0C12CED2CF12CEE0CFF1CF701E753FD
:10068000FE4F7F0120912802C21608F043C0F701F7
:10069000608171810C2C02C0769567950A94E2F70F
:1006A000D29E900111242C0D311DE1ECF1E080E08F
:1006B000458D568D2417350709F484C08F5F369613
:1006C0008A30B1F760FF24C0E1ECF1E090E080E017
:1006D000448D411118C0E0912102F0912202E20FF5
:1006E000F31F408156E0589FF001599FF00D1124EF
:1006F000EF53FE4F448F368F258F10A2178E61E087
:100700000E94AF0005C0019636968A30910501F728
:10071000C394B8CFD394A8CF80E0F80191A19111F0
:10072000892F0A5F1F4F0C171D07B9F79FB7F89461
:100730004091BD015091BE016091BF017091C00117
:100740009FBF40931D0250931E0260931F0270933F
:1007500020028823A9F08091E201882389F080910A
:10076000E0019091E101019759F48091DD0181113F
:100770000AC06114710409F4C9CE0E940000C6CEFB
:1007800010922D02F6CF0DE111E0082E000C990B0E
:10079000C097FEE0F89F7001F99FF00C1124D0E0A3
:1007A000C0E0F80180810E5F1F4FFE01EE0DFF1DBE
:1007B000E55DFE4F60810E9471012296CE30D10529
:1007C00081F7D7CF61709CCF1092C3011092C701FF
:1007D0001092C6011092C80187E191E09093C20186
:1007E0008093C101EDEDF1E0108214821382158235
:1007F000369682E0E931F807B9F783E091E090930B
:1008000024028093230280E091E09093260280935B
:10081000250284E08093270283E08093280287E00A
:1008200091E090932202809321028AE090E09093DD
:100830002A028093290284EF91E090932C02809306
:100840002B0210922F0210922E0210921D02109273
:100850001E0210921F021092200210922D02089583
:10086000EE0FFF1F0590F491E02D0994F894FFCF4F
:100870000405060302010031323334353637383986
:100880002A302300000000DB01DF01E3010700083C
:100890000009000A000B000C000D0001000100011E
:1008A0000001000100010000000000010001000043
:1008B0000000000000000001000100000001000134
:1008C0000000000100010001000100010000000023
:1008D0000001000000010001000000000001000113
:1008E0000001000000010001000000010001000102
:1008F00000000001000100010001000100010001F1
:1009000000010000000000000000000100010001E3
:1009100000010001000100010001000100010000D0
:080920000000000100010000CD
:00000001FF
