:100000000C946C000C9494000C9494000C94940048
:100010000C9494000C9494000C9494000C94940010
:100020000C9494000C9494000C9494000C94940000
:100030000C9494000C9494000C9494000C949400F0
:100040000C94EC010C9494000C9494000C94940087
:100050000C9494000C9494000C9494000C949400D0
:100060000C9494000C949400D203ED03090425042D
:1000700041045D0479049504B104CC04000000003F
:10008000240027002A0000000000250028002B0083
:1000900000000000230026002900040404040404D6
:1000A0000404020202020202030303030303010227
:1000B00004081020408001020408102001020408F6
:1000C00010200000000800020100000304070000E7
:1000D000000000000000EF0411241FBECFEFD8E0A5
:1000E000DEBFCDBF11E0A0E0B1E0EAE8FAE002C077
:1000F00005900D92A637B107D9F721E0A6E7B1E048
:1001000001C01D92A03FB207E1F710E0CCE6D0E0BD
:1001100004C02197FE010E943D05CB36D107C9F7E7
:100120000E9436020C9443050C94000096E0899FCF
:10013000D0011124AF57BE4F90967C936E935F977A
:1001400091E091969C9391979091ED01E091EE0151
:10015000F091EF01992339F0309751F0811108C0E7
:1001600080919D0104C0309719F05C968C910994A0
:100170000895833081F028F4813099F08230A1F025
:1001800008958730A9F08830B9F08430D1F4809197
:1001900080008F7D03C0809180008F7780938000E6
:1001A000089584B58F7702C084B58F7D84BD08958E
:1001B0008091B0008F7703C08091B0008F7D8093D5
:1001C000B0000895CF93DF93282F30E0F901EE536C
:1001D000FF4F8491F901E255FF4FD491F901E656A2
:1001E000FF4FC491CC2391F081110E94B900EC2FF4
:1001F000F0E0EE0FFF1FE057FF4FA591B491EC9197
:10020000ED2381E090E021F480E002C080E090E006
:10021000DF91CF910895862F0C94E2001F93CF9326
:10022000DF93282F30E0F901EE53FF4F8491F9015D
:10023000E255FF4FD491F901E656FF4FC491CC230C
:10024000C9F0162F81110E94B900EC2FF0E0EE0FDB
:10025000FF1FEA57FF4FA591B4918FB7F894111182
:1002600005C09C91ED2FE095E92302C0EC91ED2BA8
:10027000EC938FBFDF91CF911F910895862F642F4C
:100280000C940E01CF93DF9390E0FC01E255FF4FF9
:100290002491FC01E656FF4F8491882361F190E0A0
:1002A000880F991FFC01E458FF4FC591D491FC01C0
:1002B000EA57FF4FA591B491611109C09FB7F89417
:1002C0008881209582238883EC912E230BC0623095
:1002D00061F49FB7F8943881822F809583238883B7
:1002E000EC912E2B2C939FBF06C08FB7F894E8811A
:1002F0002E2B28838FBFDF91CF910895862F642FF7
:100300000C9442012FB7F89460917B0170917C01AD
:1003100080917D0190917E012FBF08950F931F93CF
:10032000CF93DF93C82FD62F86E0C89FF00111240A
:10033000EF57FE4F11A2878D90A181309105F1F00A
:100340001CF4892B49F043C082309105A9F1039731
:10035000F1F560E070E034C06623C9F161E070E05F
:100360008C2F0E9496000E9482016093D9017093A5
:10037000DA018093DB019093DC0129C00E948201A5
:100380000091D9011091DA012091DB013091DC015B
:10039000AB01BC01401B510B620B730B8091EB0155
:1003A0009091EC01A0E0B0E084179507A607B7078D
:1003B00018F462E070E004C0D11109C063E070E09D
:1003C0008C2FDF91CF911F910F910C949600DF91AC
:1003D000CF911F910F9108951F920F920FB60F9218
:1003E00011242F933F938F939F93AF93BF9380914B
:1003F0007B0190917C01A0917D01B0917E013091B3
:100400007A0123E0230F2D3720F40196A11DB11DA1
:1004100005C026E8230F0296A11DB11D20937A0185
:1004200080937B0190937C01A0937D01B0937E012A
:100430008091760190917701A0917801B091790136
:100440000196A11DB11D8093760190937701A09331
:100450007801B0937901BF91AF919F918F913F91B6
:100460002F910F900FBE0F901F901895789484B520
:10047000826084BD84B5816084BD85B5826085BDA0
:1004800085B5816085BD80916E00816080936E002E
:100490001092810080918100826080938100809120
:1004A00081008160809381008091800081608093D1
:1004B00080008091B10084608093B1008091B00091
:1004C00081608093B00080917A00846080937A008C
:1004D00080917A00826080937A0080917A008160B6
:1004E00080937A0080917A00806880937A001092DD
:1004F000C1001092800110927F01C0917F01D091C4
:100500008001C430D1057CF4FE01EE0FFF1FE35ED5
:10051000FE4F61E080810E9442012196D0938001CC
:10052000C0937F01EACF412C512C32014394CC245B
:10053000CA94DC2C81E08093ED010E94820100913D
:10054000DD011091DE012091DF013091E001AB016E
:10055000BC01401B510B620B730B8091E901909120
:10056000EA01A0E0B0E084179507A607B70708F0F6
:1005700016C1C0E08091E701C81760F4E091E30183
:10058000F091E401EC0FF11D62E080810E944201D4
:10059000CF5FF0CF912C8091E801981608F05FC0F2
:1005A000092D10E0E091E501F091E601E00FF11F67
:1005B00061E080810E944201E091E501F091E60155
:1005C000E00FF11F60E080810E940E01D301C201A3
:1005D000092C04C0880F991FAA1FBB1F0A94D2F7C9
:1005E0005C017C01E094F094812C8091E7018816F5
:1005F000F8F4C82DD0E0E091E301F091E401EC0FB4
:10060000FD1F80810E94E2002496CC0FDD1FCF5792
:10061000DE4F892B29F4888199818A299B2904C07E
:10062000888199818E219F21998388838394DDCF4E
:10063000E091E501F091E601E00FF11F61E08081BA
:100640000E940E018091E5019091E601FC01E00F0E
:10065000F11F60E080810E94420193949CCFEDE9FC
:10066000F1E083819481892B21F41082D282C182AE
:100670001582369681E0E93DF80799F710E006E02B
:100680008091E701181708F052C0F12CC12FD0E07B
:10069000CC0FDD1FC757DE4F2091E801F21608F09E
:1006A00044C0688179810F2C02C0769567950A94C1
:1006B000E2F761707727129F900111242F0D311DF1
:1006C000E091E101F091E201E20FF31FA081E1E886
:1006D000F1E080E0458D568D4217530711F46170AB
:1006E0001AC08F5F36968A30A9F7672BE1F0EDE9E3
:1006F000F1E080E090E04081411110C0089FF001DE
:10070000099FF00D1124EF57FE4FA48F368F258FD0
:1007100010A2178E61E00E948E0105C001963696E8
:100720008A30910541F7F394B7CF1F5FA9CF80E0DE
:1007300090E0C0E0FC01EF57FE4F21A12111C1E084
:1007400006968C339105B1F70E9482016093DD011A
:100750007093DE018093DF019093E001CC23F9F0E8
:100760008091A2018823D9F08091A0019091A101EC
:100770000197A9F4E0919D018E2FEE0F990BAA0B22
:10078000BB0BFC01F097EA30F10508F020C1EC5CEE
:10079000FF4F1092800110927F010C943D05109242
:1007A000ED0115C1C0917F01D0918001C430D10508
:1007B0000CF00DC1CE01880F991FFC01EB5DFE4FBF
:1007C000DC01A35EBE4F60818C910E940E012196D8
:1007D000D0938001C0937F01E5CFC0917F01D0917C
:1007E0008001C430D1050CF0F2C0DE01AA0FBB1F9E
:1007F000A35DBE4FFE01EE0FFF1FE35EFE4F6C9147
:1008000080810E940E012196D0938001C0937F01C8
:10081000E4CFC0917F01D0918001C430D1050CF0AC
:10082000D6C0DE01AA0FBB1FAB5CBE4FFE01EE0FB0
:10083000FF1FE35EFE4F6C9180810E940E012196A6
:10084000D0938001C0937F01E4CFC0917F01D0910C
:100850008001C430D1050CF0BAC0DE01AA0FBB1F65
:10086000A35CBE4FFE01EE0FFF1FE35EFE4F6C91D7
:1008700080810E940E012196D0938001C0937F0158
:10088000E4CFC0917F01D0918001C430D1050CF03C
:100890009EC0DE01AA0FBB1FAB5BBE4FFE01EE0F79
:1008A000FF1FE35EFE4F6C9180810E940E01219636
:1008B000D0938001C0937F01E4CFC0917F01D0919C
:1008C0008001C430D1050CF082C0DE01AA0FBB1F2D
:1008D000A35BBE4FFE01EE0FFF1FE35EFE4F6C9168
:1008E00080810E940E012196D0938001C0937F01E8
:1008F000E4CFC0917F01D0918001C430D1050CF0CC
:1009000066C0DE01AA0FBB1FAB5ABE4FFE01EE0F41
:10091000FF1FE35EFE4F6C9180810E940E012196C5
:10092000D0938001C0937F01E4CFC0917F01D0912B
:100930008001C430D1050CF04AC0DE01AA0FBB1FF4
:10094000A35ABE4FFE01EE0FFF1FE35EFE4F6C91F8
:1009500080810E940E012196D0938001C0937F0177
:10096000E4CFC0917F01D0918001C430D1057CF5E6
:10097000DE01AA0FBB1FAB59BE4FFE01EE0FFF1FDA
:10098000E35EFE4F6C9180810E940E012196D09310
:100990008001C0937F01E5CFC0917F01D09180019C
:1009A000C430D105A4F4DE01AA0FBB1FA359BE4F6A
:1009B000FE01EE0FFF1FE35EFE4F6C9180810E94EF
:1009C0000E012196D0938001C0937F01E5CF80E096
:1009D00090E0892B09F4AECD0E940000ABCD1092BF
:1009E000830110928701109286011092880187E19D
:1009F00091E0909382018093810180E090E0FC017E
:100A0000EF57FE4F148E10A2178E11A206968C334C
:100A10009105A9F783E091E09093E4018093E301CD
:100A200080E091E09093E6018093E50184E080937B
:100A3000E70183E08093E80187E091E09093E20191
:100A40008093E1018AE090E09093EA018093E901CC
:100A500084EF91E09093EC018093EB011092EF0111
:100A60001092EE011092DD011092DE011092DF0172
:100A70001092E0011092ED010895EE0FFF1F059016
:0A0A8000F491E02D0994F894FFCFE3
:100A8A000908070D0C0B0A31323334353637383939
:100A9A0023302A000000007E013E010B01060005FA
:100AAA000004000300000000000000000000000035
:100ABA00000000010000000000010000000000002A
:100ACA000001000100000001000000000000000118
:100ADA000000000100000001000100000000000108
:100AEA0000010001000100000000000000010000F8
:060AFA00000000010000F5
:00000001FF
