:100000000C9463000C948B000C948B000C948B006C
:100010000C948B000C948B000C948B000C948B0034
:100020000C948B000C948B000C948B000C947A062F
:100030000C948B000C948B000C948B000C948B0014
:100040000C9430060C948B000C948B000C948B0059
:100050000C948B000C948B000C948B000C948B00F4
:100060000C948B000C948B000000000024002700EF
:100070002A0000000000250028002B0000000000DE
:1000800023002600290004040404040404040202DA
:100090000202020203030303030301020408102007
:1000A0004080010204081020010204081020000012
:1000B0000008000201000003040700000000000027
:1000C0000000E2099C0A11241FBECFEFD8E0DEBF7A
:1000D000CDBF11E0A0E0B1E0EEEBFAE102C0059087
:1000E0000D92A438B107D9F722E0A4E8B1E001C02D
:1000F0001D92A435B207E1F710E0C2E6D0E004C0DB
:100100002197FE010E94510BC136D107C9F70E9409
:1001100036070C94520D0C94000096E0899FD00194
:100120001124A753BE4F90967C936E935F9791E0F6
:1001300091969C939197E0913602F09137029091BD
:100140003502992339F0309751F0811108C0809120
:10015000E5010994309719F05C968C91FACF0895D7
:10016000CF92DF92EF92FF920F931F9396E0899FB9
:10017000F0011124E753FE4F11A2278D30A1213049
:10018000310551F178F02230310509F451C02330A6
:10019000310509F452C01F910F91FF90EF90DF904D
:1001A000CF9008956623B9F361E070E00E948D005E
:1001B0002FB7F8948091C5019091C601A091C70115
:1001C000B091C8012FBF8093210290932202A09387
:1001D0002302B0932402DFCF9FB7F894C090C501EB
:1001E000D090C601E090C701F090C8019FBF009178
:1001F0002102109122022091230230912402C01A80
:10020000D10AE20AF30A009133021091340230E07D
:1002100020E00C151D052E053F0550F462E070E04E
:100220001F910F91FF90EF90DF90CF900C948D0075
:100230006111B1CF63E070E0F3CF70E060E0F0CF28
:10024000AF92BF92CF92DF92EF92FF920F931F93E4
:10025000CF93DF936C017B018B01040F151FEB0122
:100260005E01AE18BF08C017D10759F06991D601D9
:10027000ED91FC910190F081E02DC6010995892B4B
:1002800079F7C501DF91CF911F910F91FF90EF900A
:10029000DF90CF90BF90AF900895833081F028F425
:1002A000813099F08230A9F008958730A9F0883024
:1002B000C9F08430B1F4809180008F7D03C08091BB
:1002C00080008F7780938000089584B58F7784BDF8
:1002D000089584B58F7DFBCF8091B0008F77809398
:1002E000B00008958091B0008F7DF9CFCF93DF9358
:1002F000282F30E0F901E255FF4F8491F901E656CD
:10030000FF4FD491F901EA57FF4FC491CC23A1F0DC
:1003100081110E944D01EC2FF0E0EE0FFF1FE45819
:10032000FF4FA591B491EC91ED2381E090E009F4A9
:1003300080E0DF91CF91089580E090E0FACF862FA2
:100340000C9476011F93CF93DF93282F30E0F901AF
:10035000E255FF4F8491F901E656FF4FD491F90120
:10036000EA57FF4FC491CC23A9F0162F81110E94A8
:100370004D01EC2FF0E0EE0FFF1FEE58FF4FA5915F
:10038000B4918FB7F894EC91111108C0D095DE2389
:10039000DC938FBFDF91CF911F910895DE2BF8CFB3
:1003A000862F642F0C94A201CF93DF9390E0FC0181
:1003B000E656FF4F24918A579F4FFC018491882372
:1003C000C9F090E0880F991FFC01E859FF4FA591F3
:1003D000B491FC01EE58FF4FC591D49161110DC04D
:1003E0009FB7F8948C91209582238C938881282341
:1003F00028839FBFDF91CF910895623051F49FB75A
:10040000F8943C91822F809583238C93E8812E2B46
:10041000EFCF8FB7F894EC912E2B2C938FBFEACFB0
:10042000862F642F0C94D4011F93CF93DF93182F42
:10043000EB0161E00E94D401209739F460E0812F44
:10044000DF91CF911F910C94A201CF3FD10511F400
:1004500061E0F5CFE12FF0E0E255FF4FE491E330AA
:1004600031F140F4E130B1F0E230E1F0C038D105D3
:100470007CF7E4CFE73029F1E83059F1E430B1F707
:1004800080918000806280938000D0938B00C09325
:100490008A0004C084B5806884BDC7BDDF91CF9158
:1004A0001F91089584B5806284BDC8BDF7CF809147
:1004B0008000806880938000D0938900C09388007A
:1004C000EDCF8091B00080688093B000C093B300FE
:1004D000E5CF8091B00080628093B000C093B400FB
:1004E000DDCF8E50806480937C0080917A008064A0
:1004F00080937A0080917A0086FDFCCF809178000D
:100500009091790008953FB7F89480918B01909174
:100510008C01A0918D01B0918E0126B5A89B05C0DC
:100520002F3F19F00196A11DB11D3FBFBA2FA92F72
:10053000982F8827BC01CD01620F711D811D911D6F
:1005400042E0660F771F881F991F4A95D1F70895DB
:100550008F929F92AF92BF92CF92DF92EF92FF92D3
:100560000E9483024B015C0184EFC82EDD24D394EA
:10057000E12CF12C0E948302681979098A099B09F0
:10058000683E734081059105A8F321E0C21AD108A5
:10059000E108F10888EE880E83E0981EA11CB11CCA
:1005A000C114D104E104F10429F7FF90EF90DF902A
:1005B000CF90BF90AF909F908F900895089590E056
:1005C00080E00895FC0101900020E9F73197AF0128
:1005D000481B590BBC0188E392E00C9420018F92D8
:1005E0009F92AF92BF920F931F93CF93DF93CDB79C
:1005F000DEB7A1970FB6F894DEBF0FBECDBF19A22C
:10060000423008F44AE08E010F5D1F4F842E912C7A
:10061000B12CA12CA50194010E940D0BE62FB9016C
:10062000CA01EA30F4F4E05DD801EE938D01232B8A
:10063000242B252B79F790E080E0109719F0CD015D
:100640000E94E202A1960FB6F894DEBF0FBECDBFA6
:10065000DF91CF911F910F91BF90AF909F908F909E
:100660000895E95CE1CFCF93DF93EC0160E08E81E8
:100670000E94A20161E08E810E94A20160E08E8151
:100680000E94A2018BE891E00197F1F7DF91CF91F1
:100690000895CF92DF92EF92FF920F931F93CF9323
:1006A000DF936C017C0187E0E80EF11CD0E0C0E034
:1006B000062F10E0B8010C2E02C0759567950A94BC
:1006C000E2F76170F70181917F010E94A2012196FA
:1006D000C430D10579F7C601DF91CF911F910F91F9
:1006E000FF90EF90DF90CF900C943303CF92DF9286
:1006F000EF92FF920F931F93CF93DF93EC01F62EAF
:10070000642F8C810E94A2018D818F3F19F060E0DF
:100710000E94A2010F2D10E08F8584FF25C06E017D
:1007200087E0C80ED11CF12CE12CB8010E2C02C0C0
:10073000759567950A94E2F76170F60181916F01F2
:100740000E94A201FFEFEF1AFF0A88E0E816F10409
:1007500061F7CE01DF91CF911F910F91FF90EF9044
:10076000DF90CF900C943303B80184E075956795C2
:100770008A95E1F7CE010E9449036F2DCE01DF91EA
:10078000CF911F910F91FF90EF90DF90CF900C943D
:10079000490340E0682F88E392E00C94760381E0FF
:1007A0000E94C9038BE39FE10197F1F70895CF936E
:1007B000DF93823029F4909147029860909347022A
:1007C00080934B0210924C0280E480934D0280E1B2
:1007D00080934E0280E580934F0261E080913C025D
:1007E0000E94D40180913D028F3F19F061E00E9488
:1007F000D40161E080913E020E94D401C8E3D2E0BE
:100800009E01285332408091470284FD0BC084E052
:1008100090E021962817390744F461E08E810E9408
:10082000D401EECF88E090E0F4CF8BE39DE0019718
:10083000F1F760E080913C020E94A20160E08091AB
:100840003E020E94A20180913D028F3F19F060E0BC
:100850000E94A2018091470284FD34C063E088E3D6
:1008600092E00E944903CBE4D6E4CE010197F1F770
:1008700063E088E392E00E9449032197F1F763E087
:1008800088E392E00E94490383E592E00197F1F743
:1008900062E088E392E00E9449038091470280620F
:1008A0000E94C90384E0809348028CE00E94C9033F
:1008B0000E94CF0382E08093490286E0DF91CF91CE
:1008C0000C94C90380620E94C9038BE496E40197EB
:1008D000F1F78091470280620E94C90383E592E0AC
:1008E0000197F1F78091470280620E94C903D5CF3A
:1008F00090914B02691710F06FEF690FE62FF0E04F
:10090000E85CFD4F9489890F80680C94C90341E02D
:100910000E94760381E090E00895CF92DF92EF92FB
:10092000FF926B017C0141E06DE288E392E00E945E
:10093000760366277727CB016C197D098E099F09FD
:100940004AE00E94EF020196FF90EF90DF90CF9077
:100950000895A8E82A2E312CC8E5D2E0B4EB8B2EFE
:10096000912CA12CB12C81E10E94710224EB30E08A
:10097000DC010E944A0B2FEF33E040E050E00E9480
:10098000A40A6901C901309387012093860120E2FE
:10099000C21622E0D206D4F58091B4012101481A92
:1009A000510887FD5394440C551C440C551C052CD0
:1009B000000C660877088091B5018E01081B1109AB
:1009C00087FD1395000F111F000F111F012E000C42
:1009D000220B330BA901980124193509460957093F
:1009E000D601A53BB10514F0A4EBB0E0B7FF02C0FF
:1009F000B0E0A0E00E94CE0AA50194010E94A40AE2
:100A0000DA01C901840D951DA61DB71DE091B30142
:100A1000EC3088F52091B401A101421B510927FD5A
:100A200053959A01220F331F220F331F821793070A
:100A300084F02091B501AE01421B510927FD539569
:100A40009A01220F331F220F331F821793070CF4D2
:100A50009C0122503109220F331F4FB7F8948E2F7B
:100A600090E0FC01EE0FFF1FE80FF91FE157FE4F6A
:100A7000328321834FBF60E080E00E9478048FE2E0
:100A800091E00E94E20261E080E00E94780485E348
:100A900091E00E94E20261E086E00E9478046091A9
:100AA000860170918701072E000C880B990B97FF28
:100AB00054C00E948D040E94A8020E94CF038EE0C1
:100AC0000E947601892B31F48FE00E947601892BF8
:100AD00009F449CF0E94CF03CC24CA9483E0D82ED6
:100AE000E12CF12C80E10E9471022FEF30E0DC015B
:100AF0000E944A0BA70196010E94A40A4901309363
:100B00008501209384018EE00E947601892B89F172
:100B1000B4018AE00E94140260E080E00E94780440
:100B20008CE391E00E94E20261E080E00E947804A0
:100B300083E491E00E94E20260E086E00E94780493
:100B40006091840170918501072E000C880B990B30
:100B500097FF07C00E948D0407C04AE00E94EF0281
:100B6000AACF4AE00E94EF020E94A8020E94CF038F
:100B7000B9CF8FE00E947601892B99F0B40189E00A
:100B80000E94140260E080E00E9478048CE391E00F
:100B90000E94E20261E080E00E94780483E591E037
:100BA000C9CF0E94CF030E94A904FC0180819181DA
:100BB000009711F00C94F30B08950F931F93CF93AC
:100BC000DF93EC0188819981009759F02A813B815C
:100BD0002617370730F081E0DF91CF911F910F91F9
:100BE00008958B016F5F7F4F0E947C0C009759F036
:100BF000998388831B830A832C813D81232B59F79A
:100C0000FC011082E8CF80E0E7CFEF92FF920F93D4
:100C10001F93CF93DF93EC017B018A01BA010E94FD
:100C2000DD0528813981811114C02115310519F0A4
:100C3000C9010E94F30B198218821D821C821B823B
:100C40001A82CE01DF91CF911F910F91FF90EF900B
:100C500008951D830C83B701C9010E944B0DF1CF8C
:100C60001F920F920FB60F9211242F933F938F93E1
:100C70009F93AF93BF938091C5019091C601A091BE
:100C8000C701B091C80130918A0123E0230F2D37AD
:100C900058F50196A11DB11D20938A018093C501CD
:100CA0009093C601A093C701B093C80180918B01B6
:100CB00090918C01A0918D01B0918E010196A11DA2
:100CC000B11D80938B0190938C01A0938D01B09303
:100CD0008E01BF91AF919F918F913F912F910F9076
:100CE0000FBE0F901F90189526E8230F0296A11DA6
:100CF000B11DD2CF1F920F920FB60F9211242F93D6
:100D00003F934F935F936F937F938F939F93AF9393
:100D1000BF93CF93DF93EF93FF9380918901C091AD
:100D20008801D0E087FF24C01092850010928400D3
:100D3000809189018F5F8093890180918901082EBC
:100D4000000C990B8C179D0724F4809189018C303D
:100D5000C4F18091840090918500049680349C4970
:100D600008F47AC08091840090918500049676C042
:100D700080918901082E000C990B8C179D07C4F6F1
:100D8000E09189018E2FEE0F990BFC01EE0FFF1FF2
:100D9000E80FF91FE157FE4F808186FFC9CFE09130
:100DA00089018E2FEE0F990BFC01EE0FFF1FE80F4C
:100DB000F91FE157FE4F808160E08F730E94A2010E
:100DC000B7CF2091840030918500E09189018E2F6A
:100DD000EE0F990BFC01EE0FFF1FE80FF91FE15713
:100DE000FE4F81819281820F931F9093890080939F
:100DF0008800E09189018E2FEE0F990BFC01EE0F18
:100E0000FF1FE80FF91FE157FE4F808186FF11C0D9
:100E1000E09189018E2FEE0F990BFC01EE0FFF1F61
:100E2000E80FF91FE157FE4F808161E08F730E9448
:100E3000A201FF91EF91DF91CF91BF91AF919F916F
:100E40008F917F916F915F914F913F912F910F9073
:100E50000FBE0F901F90189580E49CE99093890035
:100E6000809388008FEF80938901E3CFCF93DF9346
:100E7000CDB7DEB728970FB6F894DEBF0FBECDBF53
:100E8000789484B5826084BD84B5816084BD85B565
:100E9000826085BD85B5816085BD80916E00816071
:100EA00080936E0010928100809181008260809317
:100EB0008100809181008160809381008091800019
:100EC0008160809380008091B10084608093B10044
:100ED0008091B00081608093B00080917A0084603E
:100EE00080937A0080917A00826080937A0080916A
:100EF0007A00816080937A0080917A008068809384
:100F00007A001092C1008091B3018C3008F051C07A
:100F100061E08BE00E94D4018091B301282F30E082
:100F2000F901EE0FFF1FE20FF31FE157FE4F908113
:100F3000907C9B6090831092B4011092B5012CE0DC
:100F4000622F0E943E0B829FB001112430E020E00E
:100F5000AB01420F531FFA01EE0FFF1FE40FF51F05
:100F6000E157FE4F908196FD16C02F5F3F4F2C300A
:100F7000310571F781110FC01092800082E08093DB
:100F800081001092850010928400B19A80916F00C8
:100F9000826080936F00E091B3018E2F90E0FC019E
:100FA000EE0FFF1FE80FF91FE157FE4F80818064AD
:100FB000808382E00E94D70361E08AE00E94D4012E
:100FC00061E089E00E94D401412C512C320143940C
:100FD0005E0157E0A50EB11C81E0809335028FB70A
:100FE000F8944091C5015091C6016091C70170917C
:100FF000C8018FBF8091250290912602A0912702FF
:10100000B0912802481B590B6A0B7B0B809131026F
:1010100090913202B0E0A0E084179507A607B707C9
:1010200008F012C110E080912F02181760F4E091CF
:101030002B02F0912C02E10FF11D62E080810E94F1
:10104000D4011F5FF0CF312C80913002381608F0A8
:1010500061C0E32CF12CE0912D02F0912E02EE0DF7
:10106000FF1D61E080810E94D401E0912D02F0918A
:101070002E02EE0DFF1D60E080810E94A201D301CF
:10108000C201032C04C0880F991FAA1FBB1F0A941A
:10109000D2F74C016C01C094D094212C80912F0286
:1010A000281608F5022D10E0E0912B02F0912C0299
:1010B000E00FF11F80810E9476010C5F1F4F000F2F
:1010C000111FF801E753FE4F892B41F48081918174
:1010D00088299929918380832394E0CF808191810D
:1010E0008C219D21F7CFE0912D02F0912E02EE0D83
:1010F000FF1D61E080810E94A20180912D029091EC
:101100002E02E80EF91E60E0F70180810E94D401F2
:1011100033949ACF09EC11E07801F701878D90A103
:10112000892B31F4148E8FEF9FEF968F858F11A24C
:1011300096E0E90EF11CE5E0EE16E2E0FE0669F746
:10114000D12C80912F02D81608F053C0C12C8D2CC1
:10115000912C880C991CC4018F529E4F4C012091F8
:101160003002C21608F043C0F401608171810C2C7A
:1011700002C0769567950A94E2F7D29E90011124F9
:101180002C0D311DE9ECF1E080E0458D568D2417E2
:10119000350709F4FAC08F5F36968A30B1F760FFE1
:1011A00024C0E9ECF1E090E080E0448D411118C0EA
:1011B000E0912902F0912A02E20FF31F408156E0EC
:1011C000589FF001599FF00D1124E753FE4F448FB3
:1011D000368F258F10A2178E61E00E94B00005C0E7
:1011E000019636968A30910501F7C394B8CFD3940F
:1011F000A8CF80E0F80191A19111892F0A5F1F4FBC
:10120000E016F106B9F79FB7F8944091C5015091E7
:10121000C6016091C7017091C8019FBF409325022C
:10122000509326026093270270932802882361F06E
:101230008091EA01882341F08091E8019091E901D1
:10124000D090E501019719F010923502D12CD0927F
:10125000C4011A8219821C821B821E821D82DF82B7
:101260001886F50101900020E9F73197AF014A197E
:101270005B09B501CE0101960E940506E980FA805E
:10128000E114F10419F10D811E8101151105F1F030
:101290008091C0019091C101080F191FB8018CEB1A
:1012A00091E00E94DD05882389F02091BC013091F6
:1012B000BD018091C0019091C101B701820F931FC0
:1012C0000E944B0D1093C1010093C001CE01019605
:1012D0000E94D505DD2009F450C00091C201109193
:1012E000C30160E0802F0E94780441E06AE288E355
:1012F00092E00E9476030F5F1F4F1093C30100938B
:10130000C20104301105C9F52091C0013091C1011D
:101310008091BA019091BB0128173907B1F48091EF
:10132000BC019091BD016091B6017091B701009729
:1013300071F16115710531F4232BB1F1FC0180814C
:1013400090E030C00E94420D2DC061E080E00E941C
:10135000780481E791E00E94E20250E040E063E817
:1013600071E08CEB91E00E9405060E94A8020E94A9
:10137000CF031092C3011092C20180E090E0892B4C
:1013800009F42ACE0E94000027CE617026CF611595
:10139000710551F0232B41F0FB01808190E0919584
:1013A00081959109892B89F661E080E00E9478049B
:1013B00082E691E00E94E2020E94A8020E94CF030E
:1013C0000E94A904809188018C3008F0B1C091E09E
:1013D000980F909388018093B30190E0FC01EE0F89
:1013E000FF1FE80FF91FE157FE4F88EB9BE0928348
:1013F000818310923B0210923A0287E291E090932F
:1014000039028093380283E180933C028FEF80930E
:101410003D0282E180933E028DE080933F028CE0AA
:101420008093400288E08093410287E080934202EB
:10143000109243021092440210924502109246020A
:101440001092470281E00E94D7031092CB011092C4
:10145000CF011092CE011092D0018DE191E09093D6
:10146000CA018093C901E5EEF1E010821482138273
:101470001582369682E0E132F807B9F783E091E011
:1014800090932C0280932B0280E091E090932E02A7
:1014900080932D0284E080932F0283E080933002BA
:1014A00087E091E090932A02809329028AE090E0FD
:1014B000909332028093310284EF91E09093340252
:1014C0008093330210923702109236021092250256
:1014D00010922602109227021092280210923502D2
:1014E0001092B7011092B6011092B9011092B80192
:1014F0001092BB011092BA0144E050E06FE771E036
:1015000086EB91E00E9405061092BD011092BC018D
:101510001092BF011092BE011092C1011092C00141
:1015200050E040E063E871E08CEB91E00C9405063C
:101530008FEF8093B3015DCF8CEB91E00E94D505D6
:1015400086EB91E00C94D505052E97FB1EF40094D4
:101550000E94BB0A57FD07D00E940D0B07FC03D069
:101560004EF40C94BB0A50954095309521953F4F11
:101570004F4F5F4F089590958095709561957F4F7F
:101580008F4F9F4F08950E942F0BA59F900DB49FE2
:10159000900DA49F800D911D11240895B7FF0C9408
:1015A000C30A0E94C30A821B930B08952F923F9295
:1015B0004F925F926F927F928F929F92AF92BF9263
:1015C000CF92DF92EF92FF920F931F93CF93DF930F
:1015D000CDB7DEB7CA1BDB0B0FB6F894DEBF0FBE6C
:1015E000CDBF09942A88398848885F846E847D84B9
:1015F0008C849B84AA84B984C884DF80EE80FD80BB
:101600000C811B81AA81B981CE0FD11D0FB6F89430
:10161000DEBF0FBECDBFED010895A1E21A2EAA1BB9
:10162000BB1BFD010DC0AA1FBB1FEE1FFF1FA21792
:10163000B307E407F50720F0A21BB30BE40BF50B8F
:10164000661F771F881F991F1A9469F76095709518
:10165000809590959B01AC01BD01CF010895A29F9B
:10166000B001B39FC001A39F700D811D1124911D76
:10167000B29F700D811D1124911D0895991B79E071
:1016800004C0991F961708F0961B881F7A95C9F712
:10169000809508950E942F0BB7FF0895821B930B2E
:1016A0000895EE0FFF1F0590F491E02D09940F931C
:1016B0001F93CF93DF938230910510F482E090E086
:1016C000E0915202F091530230E020E0B0E0A0E05F
:1016D000309799F42115310509F44AC0281B390BBC
:1016E00024303105D8F58A819B816115710589F116
:1016F000FB0193838283FE0111C0408151810281ED
:10170000138148175907E0F04817590799F41097C3
:1017100061F012960C93129713961C933296CF0198
:10172000DF91CF911F910F91089500935202109372
:101730005302F4CF2115310551F04217530738F009
:10174000A901DB019A01BD01DF01F801C1CFEF0161
:10175000F9CF9093530280935202CDCFFE01E20F56
:10176000F31F819391932250310939832883D7CF76
:101770002091500230915102232B41F42091150108
:1017800030911601309351022093500220911301A1
:10179000309114012115310541F42DB73EB7409128
:1017A000170150911801241B350BE0915002F09164
:1017B0005102E217F307A0F42E1B3F0B281739073D
:1017C00078F0AC014E5F5F4F2417350748F04E0F9D
:1017D0005F1F5093510240935002819391939FCF8A
:1017E000F0E0E0E09CCFCF93DF930097E9F0FC01BD
:1017F000329713821282A0915202B0915302ED01EE
:1018000030E020E01097A1F420813181820F931FF6
:1018100020915002309151022817390709F061C018
:10182000F0935102E0935002DF91CF910895EA01C5
:10183000CE17DF07E8F54A815B819E01411551050E
:10184000B1F7E901FB83EA8349915991C40FD51F90
:10185000EC17FD0761F4808191810296840F951F3A
:10186000E90199838883828193819B838A83F0E055
:10187000E0E012968D919C9113970097B9F52D9108
:101880003C911197CD010296820F931F2091500237
:10189000309151022817390739F6309751F51092D7
:1018A000530210925202B0935102A0935002BCCF47
:1018B000D383C28340815181840F951FC817D907F4
:1018C00061F44E5F5F4F88819981480F591F5183A2
:1018D00040838A819B81938382832115310509F09E
:1018E000B0CFF0935302E09352029ECFFD01DC0192
:1018F000C0CF13821282D7CFB0E0A0E0E2E8FCE0D4
:101900000C94D80A8C01009751F4CB010E94570B1C
:101910008C01C801CDB7DEB7E0E10C94F40AFC01FC
:10192000E60FF71F9C0122503109E217F30708F474
:101930009DC0D901CD91DC911197C617D70798F0BA
:10194000C530D10530F3CE0104978617970708F309
:10195000C61BD70B2297C193D1936D937C93CF0174
:101960000E94F30BD6CF5B01AC1ABD0A4C018C0E62
:101970009D1EA0915202B0915302512C412CF12C8A
:10198000E12C109731F58091500290915102881509
:10199000990509F05CC04616570608F058C08091BA
:1019A000130190911401009741F48DB79EB74091B7
:1019B000170150911801841B950BE817F90708F0DF
:1019C00055C0F0935102E0935002F9017183608396
:1019D000A0CF8D919C91119712966C9012971396AF
:1019E0007C901397A815B90559F56C0142E0C40E17
:1019F000D11CCA14DB0420F1AC014A195B09DA01DD
:101A00001296159780F06282738251834083D901C8
:101A10006D937C93E114F10471F0D7011396FC935C
:101A2000EE93129776CF22968C0F9D1FF90191832A
:101A30008083F301EFCFF0935302E093520269CF1A
:101A40004816590608F42C017D01D3019ACFCB0129
:101A50000E94570B7C01009749F0AE01B8010E942B
:101A6000390DC8010E94F30B870153CF10E000E04D
:101A700050CFFB01DC0102C001900D92415050405B
:101A8000D8F70895FB01DC018D91019080190110B8
:101A9000D9F3990B0895FB01DC0101900D92002010
:101AA000E1F7089510E0C2E6D0E004C0FE010E9414
:0E1AB000510B2196C336D107C9F7F894FFCF2A
:101ABE000405060001020331323334353637383926
:101ACE0023302A000054028000000000001002D0D3
:101ADE00019F010000000087042001DF02DE027377
:101AEE006572766F00616E676C653D00737065653B
:101AFE00643D0072696768745F64697265637469D6
:101B0E006F6E006C6566745F646972656374696F8D
:101B1E006E00416363657373206772616E746564F2
:101B2E00004163636573732064656E69656400319B
:041B3E00323334000A
:00000001FF
