:100000000C9462000C948A000C948A000C948A0070
:100010000C948A000C948A000C948A000C948A0038
:100020000C948A000C948A000C948A000C946B0641
:100030000C948A000C948A000C948A000C948A0018
:100040000C94C9050C948A000C9439060C94130680
:100050000C948A000C948A000C948A000C948A00F8
:100060000C948A000C948A000000000024002700F1
:100070002A0000000000250028002B0000000000DE
:1000800023002600290004040404040404040202DA
:100090000202020203030303030301020408102007
:1000A0004080010204081020010204081020000012
:1000B0000008000201000003040700000000000027
:1000C0000000270711241FBECFEFD8E0DEBFCDBF51
:1000D00011E0A0E0B1E0E4EDF8E102C005900D927E
:1000E000A43BB107D9F723E0A4EBB1E001C01D9216
:1000F000A131B207E1F710E0C2E6D0E004C02197D9
:10010000FE010E94540CC136D107C9F70E94300885
:100110000C94680C0C94000096E0899FD001112487
:10012000A557BD4F90967C936E935F9791E0919603
:100130009C939197E091F802F091F9029091F70267
:10014000992339F0309751F0811108C08091A702AE
:100150000994309719F05C968C91FACF0895CF925C
:10016000DF92EF92FF920F931F9396E0899FF00129
:100170001124E557FD4F11A2278D30A12130310503
:1001800051F178F02230310509F451C023303105A6
:1001900009F452C01F910F91FF90EF90DF90CF9024
:1001A00008956623B9F361E070E00E948C002FB7D8
:1001B000F8948091C2019091C301A091C401B091C3
:1001C000C5012FBF8093E3029093E402A093E50260
:1001D000B093E602DFCF9FB7F894C090C201D090F1
:1001E000C301E090C401F090C5019FBF0091E302FC
:1001F0001091E4022091E5023091E602C01AD10A82
:10020000E20AF30A0091F5021091F60230E020E0D4
:100210000C151D052E053F0550F462E070E01F919E
:100220000F91FF90EF90DF90CF900C948C006111B4
:10023000B1CF63E070E0F3CF70E060E0F0CF8330E7
:1002400081F028F4813099F08230A9F00895873048
:10025000A9F08830C9F08430B1F4809180008F7D9E
:1002600003C0809180008F7780938000089584B5CB
:100270008F7784BD089584B58F7DFBCF8091B000CA
:100280008F778093B00008958091B0008F7DF9CF73
:10029000CF93DF93282F30E0F901E255FF4F84918F
:1002A000F901E656FF4FD491F901EA57FF4FC49187
:1002B000CC23A1F081110E941F01EC2FF0E0EE0F82
:1002C000FF1FE458FF4FA591B491EC91ED2381E01D
:1002D00090E009F480E0DF91CF91089580E090E014
:1002E000FACF1F93CF93DF93282F30E0F901E25527
:1002F000FF4F8491F901E656FF4FD491F901EA5777
:10030000FF4FC491CC23A9F0162F81110E941F0129
:10031000EC2FF0E0EE0FFF1FEE58FF4FA591B491C8
:100320008FB7F894EC91111108C0D095DE23DC93BF
:100330008FBFDF91CF911F910895DE2BF8CFCF9320
:10034000DF9390E0FC01E656FF4F24918A579F4FC0
:10035000FC0184918823C9F090E0880F991FFC016B
:10036000E859FF4FA591B491FC01EE58FF4FC5919C
:10037000D49161110DC09FB7F8948C912095822380
:100380008C938881282328839FBFDF91CF91089584
:10039000623051F49FB7F8943C91822F809583236B
:1003A0008C93E8812E2BEFCF8FB7F894EC912E2B06
:1003B0002C938FBFEACF1F93CF93DF93182FEB01BE
:1003C00061E00E949F01209739F460E0812FDF9166
:1003D000CF911F910C947101CF3FD10511F461E0D1
:1003E000F5CFE12FF0E0E255FF4FE491E33031F13A
:1003F00040F4E130B1F0E230E1F0C038D1057CF7F3
:10040000E4CFE73029F1E83059F1E430B1F78091D9
:100410008000806280938000D0938B00C0938A001C
:1004200004C084B5806884BDC7BDDF91CF911F91A2
:10043000089584B5806284BDC8BDF7CF80918000E7
:10044000806880938000D0938900C0938800EDCFAE
:100450008091B00080688093B000C093B300E5CF76
:100460008091B00080628093B000C093B400DDCF73
:100470008E50806480937C0080917A0080648093A9
:100480007A0080917A0086FDFCCF8091780090916F
:10049000790008953FB7F8948091BE019091BF0113
:1004A000A091C001B091C10126B5A89B05C02F3F06
:1004B00019F00196A11DB11D3FBFBA2FA92F982F8A
:1004C0008827BC01CD01620F711D811D911D42E085
:1004D000660F771F881F991F4A95D1F708958F924D
:1004E0009F92AF92BF92CF92DF92EF92FF924B0119
:1004F0005C010E944A026B017C010E944A026C1955
:100500007D098E099F09683E734081059105A8F316
:1005100021E0821A9108A108B10888EEC80E83E094
:10052000D81EE11CF11C81149104A104B10429F727
:10053000FF90EF90DF90CF90BF90AF909F908F9003
:100540000895862F642F0C949F01862F642F0C949E
:100550007101862F0C944801AF92BF92CF92DF9227
:10056000EF92FF920F931F93CF93DF936C017B0168
:100570008B01040F151FEB015E01AE18BF08C017F9
:10058000D10759F06991D601ED91FC910190F0816C
:10059000E02DC6010995892B79F7C501DF91CF912F
:1005A0001F910F91FF90EF90DF90CF90BF90AF9091
:1005B0000895FC01538D448D252F30E0842F90E069
:1005C000821B930B541710F0CF960895019708954E
:1005D000FC01918D828D981761F0A28DAE0FBF2F17
:1005E000B11D5D968C91928D9F5F9F73928F90E06D
:1005F00008958FEF9FEF0895FC01918D828D9817DC
:1006000031F0828DE80FF11D858D90E008958FEF18
:100610009FEF0895FC01918D228D892F90E0805CE1
:100620009F4F821B91098F739927089586EC91E063
:100630000E940A0321E0892B09F420E0822F08950B
:1006400080E090E0892B29F00E94160381110C9420
:1006500000000895FC01A48DA80FB92FB11DA35A65
:10066000BF4F2C91848D90E001968F739927848FD2
:10067000A689B7892C93A089B1898C9183708064F5
:100680008C93938D848D981306C00288F389E02D96
:1006900080818F7D80830895EF92FF920F931F9347
:1006A000CF93DF93EC0181E0888F9B8D8C8D981325
:1006B0001AC0E889F989808185FF15C09FB7F89431
:1006C000EE89FF896083E889F9898081837080647D
:1006D00080839FBF81E090E0DF91CF911F910F91C8
:1006E000FF90EF900895F62E0B8D10E00F5F1F4FD7
:1006F0000F731127E02E8C8D8E110CC00FB607FCE6
:10070000FACFE889F989808185FFF5CFCE010E9473
:100710002A03F1CFEB8DEC0FFD2FF11DE35AFF4FB4
:10072000F0829FB7F8940B8FEA89FB898081806201
:10073000CFCFCF93DF93EC01888D8823B9F0AA89BE
:10074000BB89E889F9898C9185FD03C0808186FD8C
:100750000DC00FB607FCF7CF8C9185FFF2CF8081DB
:1007600085FFEDCFCE010E942A03E9CFDF91CF9123
:100770000895BF92CF92DF92EF92FF920F931F9353
:10078000CF93DF938C01B42E6C018EE0C80ED11C88
:10079000D0E0C0E0E62EF12CB7010C2E02C075951A
:1007A00067950A94E2F76170F60181916F010E94EA
:1007B00071012196CB1580F361E0F80185850E94D7
:1007C000710160E0F8018585DF91CF911F910F9154
:1007D000FF90EF90DF90CF90BF900C947101FC01DF
:1007E00086898F3F71F021853285662329F0232B7E
:1007F00031F461E00C94710121303105D1F360E0F6
:10080000F9CF0895EF92FF921F93CF93DF93EC01FE
:10081000162F7A0161E0812F0E949F011E8BFA86BC
:10082000E986E881F9810484F585E02D60E0CE0158
:10083000DF91CF911F91FF90EF9009940F931F9339
:10084000CF93DF93EC01162F042F61E0413009F0C4
:1008500060E08B850E9471018C858F3F19F060E00C
:100860000E947101023079F08C8148E084FD0CC057
:10087000612F70E084E0759567958A95E1F744E013
:10088000CE010E94B90344E0612FCE01DF91CF91E8
:100890001F910F910C94B903DC01ED91FC9106843A
:1008A000F785E02D41E0099581E090E00895DC01B5
:1008B000ED91FC910684F785E02D40E00994CF93FB
:1008C000DF93CDB7DEB728970FB6F894DEBF0FBE23
:1008D000CDBF4091130150911401609115017091A9
:1008E00016014D835E836F83788740911701509185
:1008F00018016091190170911A0149835A836B8321
:100900007C83909101032FEF290F923008F021E0B2
:1009100030E0409102032C0F3D1FF901403189F472
:10092000943079F46181680F60688AEF92E02896CC
:100930000FB6F894DEBF0FBECDBFDF91CF910C9400
:1009400057046581F0CF61E00E9457048BE39FE17B
:100950000197F1F708950F931F93CF93DF93EC0165
:10096000423018F08C8188608C834F836887222303
:1009700029F0413019F48C8184608C8364E670E046
:1009800080E090E00E946F026C8164FD57C0E881B6
:10099000F9810684F785E02D42E063E0CE010995F8
:1009A0008BE496E40197F1F7E881F9810684F785F5
:1009B000E02D42E063E0CE01099503E512E0C801B5
:1009C0000197F1F7E881F9810684F785E02D42E08F
:1009D00063E0CE010995C8010197F1F7E881F9813B
:1009E0000684F785E02D42E062E0CE010995C8015A
:1009F0000197F1F76C816062CE010E9457048BEE83
:100A000090E00197F1F784E08D836CE0CE010E94C5
:100A10005704CE010E94A30482E08E8366E0CE01DB
:100A20000E945704E881F9810484F585E02D6FEF79
:100A3000CE01DF91CF911F910F9109946062CE0199
:100A40000E9457048BE496E40197F1F76C81606291
:100A5000CE010E94570403E512E0C8010197F1F7A7
:100A60006C816062CE010E945704C1CF0895089541
:100A7000089590E080E008958F929F92AF92BF9288
:100A80000F931F93CF93DF93CDB7DEB7A1970FB628
:100A9000F894DEBF0FBECDBF19A2423008F44AE081
:100AA0008E010F5D1F4F842E912CB12CA12CA5011E
:100AB00094010E94100CE62FB901CA01EA3044F5F6
:100AC000E05DD801EE938D01232B242B252B79F7A4
:100AD00090E080E0109769F0FD0101900020E9F7B7
:100AE0003197AF014A1B5B0BBD018AEF92E00E9478
:100AF000AC02A1960FB6F894DEBF0FBECDBFDF915A
:100B0000CF911F910F91BF90AF909F908F900895BC
:100B1000E95CD7CFCF92DF92EF92FF92CF93DF9332
:100B20006C01990FEE08FF08F7FE19C06DE28AEF1D
:100B300092E00E944C04EC0166277727CB016C19E8
:100B40007D098E099F094AE00E943C058C0F9D1F7C
:100B5000DF91CF91FF90EF90DF90CF9008954AE022
:100B6000C701B601DF91CF91FF90EF90DF90CF905A
:100B70000C943C05FC0101900020E9F73197AF018E
:100B8000481B590BBC018AEF92E00C94AC020E9406
:100B90005A0C1F920F920FB60F9211242F933F936E
:100BA0008F939F93AF93BF938091C2019091C301A4
:100BB000A091C401B091C5013091BD0123E0230F84
:100BC0002D3758F50196A11DB11D2093BD018093CD
:100BD000C2019093C301A093C401B093C501809159
:100BE000BE019091BF01A091C001B091C1010196D9
:100BF000A11DB11D8093BE019093BF01A093C001C0
:100C0000B093C101BF91AF919F918F913F912F916F
:100C10000F900FBE0F901F90189526E8230F029695
:100C2000A11DB11DD2CF1F920F920FB60F921124AA
:100C30002F933F934F935F936F937F938F939F93E4
:100C4000AF93BF93EF93FF9386EC91E00E942A034A
:100C5000FF91EF91BF91AF919F918F917F916F9194
:100C60005F914F913F912F910F900FBE0F901F906A
:100C700018951F920F920FB60F9211242F938F93F6
:100C80009F93EF93FF93E091D601F091D70180817C
:100C9000E091DC01F091DD0182FD1BC0908180912B
:100CA000DF018F5F8F732091E001821741F0E091A7
:100CB000DF01F0E0EA53FE4F958F8093DF01FF9153
:100CC000EF919F918F912F910F900FBE0F901F90DA
:100CD00018958081F4CF1F920F920FB60F921124B6
:100CE0002F933F934F935F936F937F938F939F9334
:100CF000AF93BF93CF93DF93EF93FF938091B401B2
:100D0000C0918702D0E087FF24C010928500109226
:100D100084008091B4018F5F8093B4018091B4010D
:100D2000082E000C990B8C179D0724F48091B401B8
:100D30008C30C4F1809184009091850004968034B9
:100D40009C4908F47AC080918400909185000496B3
:100D500076C08091B401082E000C990B8C179D076A
:100D6000C4F6E091B4018E2FEE0F990BFC01EE0F4B
:100D7000FF1FE80FF91FED59FD4F808186FFC9CF96
:100D8000E091B4018E2FEE0F990BFC01EE0FFF1FC7
:100D9000E80FF91FED59FD4F808160E08F730E94CD
:100DA0007101B7CF2091840030918500E091B401AA
:100DB0008E2FEE0F990BFC01EE0FFF1FE80FF91FAE
:100DC000ED59FD4F81819281820F931F909389008D
:100DD00080938800E091B4018E2FEE0F990BFC01F7
:100DE000EE0FFF1FE80FF91FED59FD4F808186FFC1
:100DF00011C0E091B4018E2FEE0F990BFC01EE0FA4
:100E0000FF1FE80FF91FED59FD4F808161E08F73DF
:100E10000E947101FF91EF91DF91CF91BF91AF914E
:100E20009F918F917F916F915F914F913F912F9102
:100E30000F900FBE0F901F90189580E49CE990933F
:100E40008900809388008FEF8093B401E3CFCF9324
:100E5000DF931092C9011092C80188EE93E0A0E0E0
:100E6000B0E08093CA019093CB01A093CC01B093E2
:100E7000CD0184E291E09093C7018093C60185EC97
:100E800090E09093D3018093D20184EC90E0909312
:100E9000D5018093D40180EC90E09093D7018093AA
:100EA000D60181EC90E09093D9018093D80182EC37
:100EB00090E09093DB018093DA0186EC90E09093D0
:100EC000DD018093DC011092DF011092E0011092AD
:100ED000E1011092E2011092FD021092FC0280E406
:100EE00091E09093FB028093FA0283E180930503E3
:100EF0008FEF8093060382E1809307038DE0809358
:100F000008038CE08093090388E080930A0387E05C
:100F100080930B0310920C0310920D0310920E039A
:100F200010920F03C8E0D3E061E089910E949F0115
:100F300083E0CC30D807C1F761E0809105030E94BF
:100F40009F01809106038F3F19F061E00E949F018D
:100F500061E0809107030E949F011092FE0260E011
:100F6000809105030E94710160E0809107030E9457
:100F70007101809106038F3F19F060E00E947101BA
:100F80008FEF8093100310920403109203031092CA
:100F90008D0210929102109290021092920286E3BA
:100FA00091E090938C0280938B02E7EAF2E083EE6B
:100FB00092E0108214821382158236968E179F0754
:100FC000C1F783E091E09093EE028093ED0280E020
:100FD00091E09093F0028093EF0284E08093F1021D
:100FE00083E08093F20287E091E09093EC0280939B
:100FF000EB028AE090E09093F4028093F30284EF96
:1010000091E09093F6028093F5021092F90210920B
:10101000F8021092E7021092E8021092E902109290
:10102000EA021092F702809187028C30A8F491E0D6
:10103000980F909387028093880290E0FC01EE0F56
:10104000FF1FE80FF91FED59FD4F88EB9BE09283DE
:101050008183DF91CF9108958FEF80938802F9CF3C
:10106000CF93DF9300D000D000D0CDB7DEB7789417
:1010700084B5826084BD84B5816084BD85B582609D
:1010800085BD85B5816085BD80916E00816080934E
:101090006E001092810080918100826080938100B7
:1010A00080918100816080938100809180008160C7
:1010B000809380008091B10084608093B100809122
:1010C000B00081608093B00080917A00846080934A
:1010D0007A0080917A00826080937A0080917A0011
:1010E000816080937A0080917A00806880937A0092
:1010F0001092C10061E08AE00E949F0161E089E0F6
:101100000E949F0162E08EE00E949F0162E08FE0FA
:101110000E949F01809188028C3008F051C061E0EC
:101120008BE00E949F0180918802282F30E0F90116
:10113000EE0FFF1FE20FF31FED59FD4F9081907CE2
:101140009B6090831092890210928A022CE0622F99
:101150000E94410C829FB001112430E020E0AB01DD
:10116000420F531FFA01EE0FFF1FE40FF51FED5959
:10117000FD4F908196FD16C02F5F3F4F2C303105FB
:1011800071F781110FC01092800082E0809381007E
:101190001092850010928400B19A80916F00826055
:1011A00080936F00E09188028E2F90E0FC01EE0F9B
:1011B000FF1FE80FF91FED59FD4F80818064808388
:1011C00020E042E060E18AEF92E00E94AB0480E51B
:1011D00091E00E94BA05E091D601F091D70182E03A
:1011E0008083E091D201F091D3011082E091D4018B
:1011F000F091D5018FEC80831092DE01E091DA014D
:10120000F091DB0186E08083E091D801F091D90173
:10121000808180618083E091D801F091D901808143
:1012200088608083E091D801F091D9018081806845
:101230008083E091D801F091D90180818F7D8083F6
:1012400044244A9463E0562E612C712C78E8272EB2
:10125000312CB090BC01B110BAC181E08093F7028B
:101260008FB7F8944091C2015091C3016091C401BD
:101270007091C5018FBF8091E7029091E802A09123
:10128000E902B091EA02481B590B6A0B7B0B809173
:10129000F3029091F402B0E0A0E084179507A6074E
:1012A000B70708F03CC119828091F1022981281703
:1012B00070F4E091ED02F091EE02E20FF11D62E0B8
:1012C00080810E949F0139813F5F3983EDCFA12C3E
:1012D0008091F202A81608F071C00A2D10E0E0918A
:1012E000EF02F091F002E00FF11F61E080810E94B7
:1012F0009F01E091EF02F091F002E00FF11F60E03A
:1013000080810E94710181E090E0A0E0B0E00A2CB1
:1013100004C0880F991FAA1FBB1F0A94D2F76C0143
:101320007C01E094F094912C8091F102981678F56C
:10133000692D70E07A836983E091ED02F091EE020D
:10134000CB01E80FF91F80810E944801E981FA81F1
:101350003496FA83E983892B61F4EE0FFF1FE5577A
:10136000FD4F808191818C299D2991838083939465
:10137000DBCF29813A81220F331F25573D4F3A8316
:101380002983F901808191818E219F21EECFE09107
:10139000EF02F091F002E00FF11F61E080810E9406
:1013A00071018091EF029091F002080F191F60E027
:1013B000F80180810E949F01A3948ACF9BE8C92EE7
:1013C00092E0D92EDA82C982E981FA81878D90A1D3
:1013D000892B31F4148E2FEF3FEF368F258F11A21A
:1013E00069817A816A5F7F4F7A836983675C724023
:1013F00059F710E08091F102181708F053C000E08F
:10140000E12EF12CEE0CFF1CF701ED56FD4F7F0194
:101410002091F202021708F043C0F7016081718148
:10142000002E02C0769567950A94E2F7129F90010C
:101430001124200F311DEBE8F2E080E0458D568D40
:101440002417350709F4B8C18F5F36968A30B1F793
:1014500060FF24C0EBE8F2E090E080E0448D4111B1
:1014600018C0E091EB02F091EC02E20FF31F6081F3
:1014700046E0489FF001499FF00D1124E557FD4FCC
:10148000648F368F258F10A2178E61E00E94AF0007
:1014900005C0019636968A30910501F70F5FB8CFE7
:1014A0001F5FA8CFF60181A18111B82EF6E0CF0E03
:1014B000D11C29813A812C153D05A1F72FB7F8944D
:1014C0008091C2019091C301A091C401B091C50166
:1014D0002FBF8093E7029093E802A093E902B093B4
:1014E000EA02BB20E1F08091AC028823C1F0809138
:1014F000AA029091AB02019791F43091A70239832F
:10150000311110C080E090E0892B09F4A2CE0E9436
:101510001603882309F49DCE0E9400009ACE1092F3
:10152000F702F0CF8091BA019091BB01498143321B
:1015300099F58B549E4FFC0110826BE171E085EBB5
:1015400091E00E945F0C892B81F48AEF92E00E9467
:10155000A30480E691E00E94BA0581E08093BC017B
:101560001092BB011092BA01CDCF8AEF92E00E9497
:10157000A30480E791E00E94BA0560ED77E080E087
:1015800090E00E946F028AEF92E00E94A30480E53F
:1015900091E00E94BA05E4CF843091050CF0B2CFFF
:1015A0008A5F0E945F046AE28AEF92E00E944C0424
:1015B0008091BA019091BB01FC01EB54FE4F29814F
:1015C000208301969093BB018093BA019BCF8EE05C
:1015D0000E9448018C018FE00E9448019E838D8308
:1015E00080E10E9438027C0181E10E9438029A83E6
:1015F000898324EB30E0D7010E944D0CA3019201B6
:101600000E94DE0B69012FEF30E0A981BA810E94B0
:101610004D0CA30192010E94DE0B29833A834B8378
:101620005C8330E2C31632E0D3060CF09EC080919A
:1016300089029101281B310987FD3395220F331F41
:10164000220F331F4901330FAA08BB0880918A0279
:1016500028E532E0281B310987FD3395220F331F1F
:10166000220F331F032E000C440B550B2819390988
:101670004A095B09D601A53BB10514F0A4EBB0E023
:10168000B7FF02C0B0E0A0E00E94080C24EB30E0FD
:1016900040E050E00E94DE0B280D391D4A1D5B1D05
:1016A000409188024C3088F580918902B101681B15
:1016B000710987FD7395CB01880F991F880F991FBA
:1016C000281739078CF080918A02E8E5F2E0E81BE0
:1016D000F10987FDF395CF01880F991F880F991F96
:1016E000281739070CF4C9010297880F991F6FB7A3
:1016F000F89450E09A01220F331F240F351FF9018F
:10170000ED59FD4F928381836FBF012B81F561E01D
:101710008AE00E94710160E089E00E9471016981A4
:101720007A8189E00E94DB018AEF92E00E94A304A3
:101730008FE791E00E94BA0580E00E945F0480EA92
:1017400091E00E94BA05C6010E948A0587EA91E0ED
:101750000E94BA0589819A810E948A0564E670E038
:1017600080E090E00E946F02CDCE960199CF2D814E
:101770003E8160E08AE0232B91F40E94710161E0D8
:1017800089E00E94710169817A818AE00E94DB010F
:101790008AEF92E00E94A30489E891E0CBCF0E94F7
:1017A000710160E089E00E9471018AEF92E00E947D
:1017B000A30484E991E0BECF617068CE052E97FB4B
:1017C0001EF400940E94F50B57FD07D00E94100CE8
:1017D00007FC03D04EF40C94F50B509540953095D2
:1017E00021953F4F4F4F5F4F08959095809570958D
:1017F00061957F4F8F4F9F4F08950E94320CA59F98
:10180000900DB49F900DA49F800D911D11240895FB
:10181000B7FF0C94FD0B0E94FD0B821B930B0895E8
:10182000A1E21A2EAA1BBB1BFD010DC0AA1FBB1FE4
:10183000EE1FFF1FA217B307E407F50720F0A21B56
:10184000B30BE40BF50B661F771F881F991F1A94C3
:1018500069F760957095809590959B01AC01BD01ED
:10186000CF010895A29FB001B39FC001A39F700D47
:10187000811D1124911DB29F700D811D1124911D98
:101880000895991B79E004C0991F961708F0961BDC
:10189000881F7A95C9F7809508950E94320CB7FF8A
:1018A0000895821B930B0895EE0FFF1F0590F4918E
:1018B000E02D099481E090E0F8940C94680CFB0111
:1018C000DC018D91019080190110D9F3990B0895D5
:0418D000F894FFCFBA
:1018D4000605040302010031323334353637383912
:1018E4002A30230040145400401050313233340065
:1018F400000000004C03AC02D90299030A03E80279
:10190400FC0200000000A102A502A90200000000E0
:101914004C04AC0239053805AB040204EF031E0481
:10192400456E7465722070617373776F72643A00E8
:10193400416363657373206772616E74656421002B
:101944004163636573732064656E69656421004D4A
:101954006F746F723A204357004D6F746F723A2060
:10196400434357004D6F746F723A2053746F700085
:10197400536572766F3A00204D6F746F72537065C1
:0419840065643A005C
:00000001FF
