:100000000C9462000C948A000C948A000C948A0070
:100010000C948A000C948A000C948A000C948A0038
:100020000C948A000C948A000C948A000C948A0028
:100030000C948A000C948A000C948A000C948A0018
:100040000C94E6010C948A000C948A000C948A00AB
:100050000C948A000C948A000C948A000C948A00F8
:100060000C948A000C948A000000000024002700F1
:100070002A0000000000250028002B0000000000DE
:1000800023002600290004040404040404040202DA
:100090000202020203030303030301020408102007
:1000A0004080010204081020010204081020000012
:1000B0000008000201000003040700000000000027
:1000C0000000F20311241FBECFEFD8E0DEBFCDBF8A
:1000D00011E0A0E0B1E0ECE8F8E002C005900D927C
:1000E000AE31B107D9F721E0AEE1B1E001C01D9218
:1000F000A839B207E1F710E0C2E6D0E004C02197CA
:10010000FE010E943E04C136D107C9F70E943002A9
:100110000C9444040C94000096E0899FD0011124B3
:10012000A75DBE4F90967C936E935F9791E09196FA
:100130009C939197E0919601F09197019091950190
:10014000992339F0309751F0811108C08091450111
:100150000994309719F05C968C91FACF0895CF925C
:10016000DF92EF92FF920F931F9396E0899FF00129
:100170001124E75DFE4F11A2278D30A121303105FA
:1001800051F178F02230310509F451C023303105A6
:1001900009F452C01F910F91FF90EF90DF90CF9024
:1001A00008956623B9F361E070E00E948C002FB7D8
:1001B000F8948091250190912601A0912701B0919A
:1001C00028012FBF8093810190938201A093830126
:1001D000B0938401DFCF9FB7F894C0902501D090F1
:1001E0002601E0902701F09028019FBF0091810136
:1001F000109182012091830130918401C01AD10AAB
:10020000E20AF30A009193011091940130E020E09A
:100210000C151D052E053F0550F462E070E01F919E
:100220000F91FF90EF90DF90CF900C948C006111B4
:10023000B1CF63E070E0F3CF70E060E0F0CF8330E7
:1002400081F028F4813099F08230A9F00895873048
:10025000A9F08830C9F08430B1F4809180008F7D9E
:1002600003C0809180008F7780938000089584B5CB
:100270008F7784BD089584B58F7DFBCF8091B000CA
:100280008F778093B00008958091B0008F7DF9CF73
:10029000CF93DF93282F30E0F901E255FF4F84918F
:1002A000F901E656FF4FD491F901EA57FF4FC49187
:1002B000CC23A1F081110E941F01EC2FF0E0EE0F82
:1002C000FF1FE458FF4FA591B491EC91ED2381E01D
:1002D00090E009F480E0DF91CF91089580E090E014
:1002E000FACF1F93CF93DF93282F30E0F901E25527
:1002F000FF4F8491F901E656FF4FD491F901EA5777
:10030000FF4FC491CC23A9F0162F81110E941F0129
:10031000EC2FF0E0EE0FFF1FEE58FF4FA591B491C8
:100320008FB7F894EC91111108C0D095DE23DC93BF
:100330008FBFDF91CF911F910895DE2BF8CFCF9320
:10034000DF9390E0FC01E656FF4F24918A579F4FC0
:10035000FC0184918823C9F090E0880F991FFC016B
:10036000E859FF4FA591B491FC01EE58FF4FC5919C
:10037000D49161110DC09FB7F8948C912095822380
:100380008C938881282328839FBFDF91CF91089584
:10039000623051F49FB7F8943C91822F809583236B
:1003A0008C93E8812E2BEFCF8FB7F894EC912E2B06
:1003B0002C938FBFEACF862F642F0C949F01862F3A
:1003C000642F0C947101862F0C9448011F920F9298
:1003D0000FB60F9211242F933F938F939F93AF9358
:1003E000BF938091250190912601A0912701B091A2
:1003F00028013091240123E0230F2D3758F5019671
:10040000A11DB11D20932401809325019093260105
:10041000A0932701B09328018091200190912101A0
:10042000A0912201B09123010196A11DB11D8093DD
:10043000200190932101A0932201B0932301BF9149
:10044000AF919F918F913F912F910F900FBE0F9081
:100450001F90189526E8230F0296A11DB11DD2CF3B
:10046000789484B5826084BD84B5816084BD85B58F
:10047000826085BD85B5816085BD80916E0081609B
:1004800080936E0010928100809181008260809341
:100490008100809181008160809381008091800043
:1004A0008160809380008091B10084608093B1006E
:1004B0008091B00081608093B00080917A00846068
:1004C00080937A0080917A00826080937A00809194
:1004D0007A00816080937A0080917A0080688093AE
:1004E0007A001092C10010921F0110921E01812CFF
:1004F000912C5401839444244A94542C56E0652E44
:10050000772473948FE084B9709295018FB7F89433
:100510004091250150912601609127017091280199
:100520008FBF8091850190918601A0918701B09144
:100530008801481B590B6A0B7B0B809191019091AC
:100540009201B0E0A0E084179507A607B70708F06E
:100550001DC1C0E080918F01C81760F4E0918B014C
:10056000F0918C01EC0FF11D62E080810E949F01EF
:10057000CF5FF0CF312C80919001381608F05FC02A
:10058000032D10E0E0918D01F0918E01E00FF11F3D
:1005900061E080810E949F01E0918D01F0918E01C8
:1005A000E00FF11F60E080810E947101D501C4015C
:1005B000032C04C0880F991FAA1FBB1F0A94D2F7EF
:1005C0006C017C01E094F094212C80918F0128161D
:1005D000F8F4C22DD0E0E0918B01F0918C01EC0F8A
:1005E000FD1F80810E9448012496CC0FDD1FC75D4E
:1005F000DE4F892B41F4888199818C299D2999832B
:1006000088832394E2CF888199818E219F21F7CF1F
:10061000E0918D01F0918E01E00FF11F61E080818A
:100620000E94710180918D0190918E01080F191F18
:1006300060E0F80180810E949F0133949CCF09E221
:1006400011E0E8018F8D98A1892B21F41C8E5E8E1C
:100650004D8E19A22696F1E0C536DF0799F7F12CE9
:1006600080918F01F81608F052C0E12CCF2CD12CCC
:10067000CC0CDD1CC6018F5C9E4F6C01209190015B
:10068000E21608F042C0F601608171810E2C02C0B2
:10069000769567950A94E2F7F29E900111242E0D4B
:1006A000311DE9E2F1E080E0458D568D24173507D4
:1006B00009F496C08F5F36968A30B1F760FF23C089
:1006C000E9E2F1E090E080E0448D411117C0E09153
:1006D0008901F0918A01E20FF31F4081689EF001C9
:1006E000699EF00D1124E75DFE4F448F368F258FF4
:1006F00010A2178E61E00E94AF0005C001963696E9
:100700008A30910509F7E394B9CFF394A9CF80E03B
:10071000F80191A19111892F0A5F1F4FC017D107CE
:10072000B9F79FB7F8944091250150912601609147
:100730002701709128019FBF409385015093860146
:100740006093870170938801882301F180914A01A9
:100750008823E1F080914801909149010197B1F41B
:10076000E0914501E053EA3098F40E2E000CFF0BA7
:10077000E454FC4F0C943E04EE03CC03DB03DE0395
:10078000E003E203E403E603E903EB0310929501BF
:1007900080911E0185B907C075B885B190E090932E
:1007A0001F0180931E01E0E0F0E0EF2B09F4AACED8
:1007B0000E940000A5CE82E085B9EFCF83E0FCCF98
:1007C00084E0FACF85E0F8CF65B8E7CFF7E0F5B978
:1007D000E4CF88E0F1CF99E095B9DFCF15B8DDCF50
:1007E000617089CF10922B0110922F0110922E016F
:1007F0001092300187E191E090932A0180932901C2
:10080000E5E4F1E01082148213821582369681E0CD
:10081000E138F807B9F783E091E090938C01809379
:100820008B0180E091E090938E0180938D0184E0B4
:1008300080938F0183E08093900187E091E0909313
:100840008A01809389018AE090E0909392018093DD
:10085000910184EF91E09093940180939301109221
:1008600097011092960110928501109286011092C4
:10087000870110928801109295010895EE0FFF1FD5
:0C0880000590F491E02D0994F894FFCF4E
:10088C000506070403020131323334353637383963
:0E089C002A302300000000DB01DF01E3010031
:00000001FF
